{
	"PH/contracts/PPHTokenSale.sol": {
		"PPHTokenSale": {
			"abi": [
				{
					"inputs": [
						{
							"internalType": "contract PPHToken",
							"name": "_tokenContract",
							"type": "address"
						},
						{
							"internalType": "uint256",
							"name": "_tokenPrice",
							"type": "uint256"
						}
					],
					"stateMutability": "nonpayable",
					"type": "constructor"
				},
				{
					"anonymous": false,
					"inputs": [
						{
							"indexed": false,
							"internalType": "address",
							"name": "_buyer",
							"type": "address"
						},
						{
							"indexed": false,
							"internalType": "uint256",
							"name": "_amount",
							"type": "uint256"
						}
					],
					"name": "Sell",
					"type": "event"
				},
				{
					"inputs": [],
					"name": "admin",
					"outputs": [
						{
							"internalType": "address",
							"name": "",
							"type": "address"
						}
					],
					"stateMutability": "view",
					"type": "function"
				},
				{
					"inputs": [
						{
							"internalType": "uint256",
							"name": "_numberOfTokens",
							"type": "uint256"
						}
					],
					"name": "buyTokens",
					"outputs": [],
					"stateMutability": "payable",
					"type": "function"
				},
				{
					"inputs": [],
					"name": "tokenContract",
					"outputs": [
						{
							"internalType": "contract PPHToken",
							"name": "",
							"type": "address"
						}
					],
					"stateMutability": "view",
					"type": "function"
				},
				{
					"inputs": [],
					"name": "tokenPrice",
					"outputs": [
						{
							"internalType": "uint256",
							"name": "",
							"type": "uint256"
						}
					],
					"stateMutability": "view",
					"type": "function"
				},
				{
					"inputs": [],
					"name": "tokensSold",
					"outputs": [
						{
							"internalType": "uint256",
							"name": "",
							"type": "uint256"
						}
					],
					"stateMutability": "view",
					"type": "function"
				}
			],
			"devdoc": {
				"kind": "dev",
				"methods": {},
				"version": 1
			},
			"evm": {
				"assembly": "    /* \"PH/contracts/PPHTokenSale.sol\":93:1350  contract PPHTokenSale {... */\n  mstore(0x40, 0x80)\n    /* \"PH/contracts/PPHTokenSale.sol\":295:462  constructor(PPHToken _tokenContract, uint256 _tokenPrice) {... */\n  callvalue\n  dup1\n  iszero\n  tag_1\n  jumpi\n  0x00\n  dup1\n  revert\ntag_1:\n  pop\n  mload(0x40)\n  sub(codesize, bytecodeSize)\n  dup1\n  bytecodeSize\n  dup4\n  codecopy\n  dup2\n  dup2\n  add\n  0x40\n  mstore\n  dup2\n  add\n  swap1\n  tag_2\n  swap2\n  swap1\n  tag_3\n  jump\t// in\ntag_2:\n    /* \"PH/contracts/PPHTokenSale.sol\":371:381  msg.sender */\n  caller\n    /* \"PH/contracts/PPHTokenSale.sol\":363:368  admin */\n  0x00\n  dup1\n    /* \"PH/contracts/PPHTokenSale.sol\":363:381  admin = msg.sender */\n  0x0100\n  exp\n  dup2\n  sload\n  dup2\n  0xffffffffffffffffffffffffffffffffffffffff\n  mul\n  not\n  and\n  swap1\n  dup4\n  0xffffffffffffffffffffffffffffffffffffffff\n  and\n  mul\n  or\n  swap1\n  sstore\n  pop\n    /* \"PH/contracts/PPHTokenSale.sol\":407:421  _tokenContract */\n  dup2\n    /* \"PH/contracts/PPHTokenSale.sol\":391:404  tokenContract */\n  0x01\n  0x00\n    /* \"PH/contracts/PPHTokenSale.sol\":391:421  tokenContract = _tokenContract */\n  0x0100\n  exp\n  dup2\n  sload\n  dup2\n  0xffffffffffffffffffffffffffffffffffffffff\n  mul\n  not\n  and\n  swap1\n  dup4\n  0xffffffffffffffffffffffffffffffffffffffff\n  and\n  mul\n  or\n  swap1\n  sstore\n  pop\n    /* \"PH/contracts/PPHTokenSale.sol\":444:455  _tokenPrice */\n  dup1\n    /* \"PH/contracts/PPHTokenSale.sol\":431:441  tokenPrice */\n  0x02\n    /* \"PH/contracts/PPHTokenSale.sol\":431:455  tokenPrice = _tokenPrice */\n  dup2\n  swap1\n  sstore\n  pop\n    /* \"PH/contracts/PPHTokenSale.sol\":295:462  constructor(PPHToken _tokenContract, uint256 _tokenPrice) {... */\n  pop\n  pop\n    /* \"PH/contracts/PPHTokenSale.sol\":93:1350  contract PPHTokenSale {... */\n  jump(tag_6)\n    /* \"#utility.yul\":88:205   */\ntag_8:\n    /* \"#utility.yul\":197:198   */\n  0x00\n    /* \"#utility.yul\":194:195   */\n  dup1\n    /* \"#utility.yul\":187:199   */\n  revert\n    /* \"#utility.yul\":334:460   */\ntag_10:\n    /* \"#utility.yul\":371:378   */\n  0x00\n    /* \"#utility.yul\":411:453   */\n  0xffffffffffffffffffffffffffffffffffffffff\n    /* \"#utility.yul\":404:409   */\n  dup3\n    /* \"#utility.yul\":400:454   */\n  and\n    /* \"#utility.yul\":389:454   */\n  swap1\n  pop\n    /* \"#utility.yul\":334:460   */\n  swap2\n  swap1\n  pop\n  jump\t// out\n    /* \"#utility.yul\":466:562   */\ntag_11:\n    /* \"#utility.yul\":503:510   */\n  0x00\n    /* \"#utility.yul\":532:556   */\n  tag_24\n    /* \"#utility.yul\":550:555   */\n  dup3\n    /* \"#utility.yul\":532:556   */\n  tag_10\n  jump\t// in\ntag_24:\n    /* \"#utility.yul\":521:556   */\n  swap1\n  pop\n    /* \"#utility.yul\":466:562   */\n  swap2\n  swap1\n  pop\n  jump\t// out\n    /* \"#utility.yul\":568:680   */\ntag_12:\n    /* \"#utility.yul\":621:628   */\n  0x00\n    /* \"#utility.yul\":650:674   */\n  tag_26\n    /* \"#utility.yul\":668:673   */\n  dup3\n    /* \"#utility.yul\":650:674   */\n  tag_11\n  jump\t// in\ntag_26:\n    /* \"#utility.yul\":639:674   */\n  swap1\n  pop\n    /* \"#utility.yul\":568:680   */\n  swap2\n  swap1\n  pop\n  jump\t// out\n    /* \"#utility.yul\":686:840   */\ntag_13:\n    /* \"#utility.yul\":775:815   */\n  tag_28\n    /* \"#utility.yul\":809:814   */\n  dup2\n    /* \"#utility.yul\":775:815   */\n  tag_12\n  jump\t// in\ntag_28:\n    /* \"#utility.yul\":768:773   */\n  dup2\n    /* \"#utility.yul\":765:816   */\n  eq\n    /* \"#utility.yul\":755:834   */\n  tag_29\n  jumpi\n    /* \"#utility.yul\":830:831   */\n  0x00\n    /* \"#utility.yul\":827:828   */\n  dup1\n    /* \"#utility.yul\":820:832   */\n  revert\n    /* \"#utility.yul\":755:834   */\ntag_29:\n    /* \"#utility.yul\":686:840   */\n  pop\n  jump\t// out\n    /* \"#utility.yul\":846:1021   */\ntag_14:\n    /* \"#utility.yul\":919:924   */\n  0x00\n    /* \"#utility.yul\":950:956   */\n  dup2\n    /* \"#utility.yul\":944:957   */\n  mload\n    /* \"#utility.yul\":935:957   */\n  swap1\n  pop\n    /* \"#utility.yul\":966:1015   */\n  tag_31\n    /* \"#utility.yul\":1009:1014   */\n  dup2\n    /* \"#utility.yul\":966:1015   */\n  tag_13\n  jump\t// in\ntag_31:\n    /* \"#utility.yul\":846:1021   */\n  swap3\n  swap2\n  pop\n  pop\n  jump\t// out\n    /* \"#utility.yul\":1027:1104   */\ntag_15:\n    /* \"#utility.yul\":1064:1071   */\n  0x00\n    /* \"#utility.yul\":1093:1098   */\n  dup2\n    /* \"#utility.yul\":1082:1098   */\n  swap1\n  pop\n    /* \"#utility.yul\":1027:1104   */\n  swap2\n  swap1\n  pop\n  jump\t// out\n    /* \"#utility.yul\":1110:1232   */\ntag_16:\n    /* \"#utility.yul\":1183:1207   */\n  tag_34\n    /* \"#utility.yul\":1201:1206   */\n  dup2\n    /* \"#utility.yul\":1183:1207   */\n  tag_15\n  jump\t// in\ntag_34:\n    /* \"#utility.yul\":1176:1181   */\n  dup2\n    /* \"#utility.yul\":1173:1208   */\n  eq\n    /* \"#utility.yul\":1163:1226   */\n  tag_35\n  jumpi\n    /* \"#utility.yul\":1222:1223   */\n  0x00\n    /* \"#utility.yul\":1219:1220   */\n  dup1\n    /* \"#utility.yul\":1212:1224   */\n  revert\n    /* \"#utility.yul\":1163:1226   */\ntag_35:\n    /* \"#utility.yul\":1110:1232   */\n  pop\n  jump\t// out\n    /* \"#utility.yul\":1238:1381   */\ntag_17:\n    /* \"#utility.yul\":1295:1300   */\n  0x00\n    /* \"#utility.yul\":1326:1332   */\n  dup2\n    /* \"#utility.yul\":1320:1333   */\n  mload\n    /* \"#utility.yul\":1311:1333   */\n  swap1\n  pop\n    /* \"#utility.yul\":1342:1375   */\n  tag_37\n    /* \"#utility.yul\":1369:1374   */\n  dup2\n    /* \"#utility.yul\":1342:1375   */\n  tag_16\n  jump\t// in\ntag_37:\n    /* \"#utility.yul\":1238:1381   */\n  swap3\n  swap2\n  pop\n  pop\n  jump\t// out\n    /* \"#utility.yul\":1387:1926   */\ntag_3:\n    /* \"#utility.yul\":1482:1488   */\n  0x00\n    /* \"#utility.yul\":1490:1496   */\n  dup1\n    /* \"#utility.yul\":1539:1541   */\n  0x40\n    /* \"#utility.yul\":1527:1536   */\n  dup4\n    /* \"#utility.yul\":1518:1525   */\n  dup6\n    /* \"#utility.yul\":1514:1537   */\n  sub\n    /* \"#utility.yul\":1510:1542   */\n  slt\n    /* \"#utility.yul\":1507:1626   */\n  iszero\n  tag_39\n  jumpi\n    /* \"#utility.yul\":1545:1624   */\n  tag_40\n  tag_8\n  jump\t// in\ntag_40:\n    /* \"#utility.yul\":1507:1626   */\ntag_39:\n    /* \"#utility.yul\":1665:1666   */\n  0x00\n    /* \"#utility.yul\":1690:1770   */\n  tag_41\n    /* \"#utility.yul\":1762:1769   */\n  dup6\n    /* \"#utility.yul\":1753:1759   */\n  dup3\n    /* \"#utility.yul\":1742:1751   */\n  dup7\n    /* \"#utility.yul\":1738:1760   */\n  add\n    /* \"#utility.yul\":1690:1770   */\n  tag_14\n  jump\t// in\ntag_41:\n    /* \"#utility.yul\":1680:1770   */\n  swap3\n  pop\n    /* \"#utility.yul\":1636:1780   */\n  pop\n    /* \"#utility.yul\":1819:1821   */\n  0x20\n    /* \"#utility.yul\":1845:1909   */\n  tag_42\n    /* \"#utility.yul\":1901:1908   */\n  dup6\n    /* \"#utility.yul\":1892:1898   */\n  dup3\n    /* \"#utility.yul\":1881:1890   */\n  dup7\n    /* \"#utility.yul\":1877:1899   */\n  add\n    /* \"#utility.yul\":1845:1909   */\n  tag_17\n  jump\t// in\ntag_42:\n    /* \"#utility.yul\":1835:1909   */\n  swap2\n  pop\n    /* \"#utility.yul\":1790:1919   */\n  pop\n    /* \"#utility.yul\":1387:1926   */\n  swap3\n  pop\n  swap3\n  swap1\n  pop\n  jump\t// out\n    /* \"PH/contracts/PPHTokenSale.sol\":93:1350  contract PPHTokenSale {... */\ntag_6:\n  dataSize(sub_0)\n  dup1\n  dataOffset(sub_0)\n  0x00\n  codecopy\n  0x00\n  return\nstop\n\nsub_0: assembly {\n        /* \"PH/contracts/PPHTokenSale.sol\":93:1350  contract PPHTokenSale {... */\n      mstore(0x40, 0x80)\n      jumpi(tag_1, lt(calldatasize, 0x04))\n      shr(0xe0, calldataload(0x00))\n      dup1\n      0x3610724e\n      eq\n      tag_2\n      jumpi\n      dup1\n      0x518ab2a8\n      eq\n      tag_3\n      jumpi\n      dup1\n      0x55a373d6\n      eq\n      tag_4\n      jumpi\n      dup1\n      0x7ff9b596\n      eq\n      tag_5\n      jumpi\n      dup1\n      0xf851a440\n      eq\n      tag_6\n      jumpi\n    tag_1:\n      0x00\n      dup1\n      revert\n        /* \"PH/contracts/PPHTokenSale.sol\":652:1348  function buyTokens(uint256 _numberOfTokens) public payable {... */\n    tag_2:\n      tag_7\n      0x04\n      dup1\n      calldatasize\n      sub\n      dup2\n      add\n      swap1\n      tag_8\n      swap2\n      swap1\n      tag_9\n      jump\t// in\n    tag_8:\n      tag_10\n      jump\t// in\n    tag_7:\n      stop\n        /* \"PH/contracts/PPHTokenSale.sol\":213:238  uint256 public tokensSold */\n    tag_3:\n      callvalue\n      dup1\n      iszero\n      tag_11\n      jumpi\n      0x00\n      dup1\n      revert\n    tag_11:\n      pop\n      tag_12\n      tag_13\n      jump\t// in\n    tag_12:\n      mload(0x40)\n      tag_14\n      swap2\n      swap1\n      tag_15\n      jump\t// in\n    tag_14:\n      mload(0x40)\n      dup1\n      swap2\n      sub\n      swap1\n      return\n        /* \"PH/contracts/PPHTokenSale.sol\":147:176  PPHToken public tokenContract */\n    tag_4:\n      callvalue\n      dup1\n      iszero\n      tag_16\n      jumpi\n      0x00\n      dup1\n      revert\n    tag_16:\n      pop\n      tag_17\n      tag_18\n      jump\t// in\n    tag_17:\n      mload(0x40)\n      tag_19\n      swap2\n      swap1\n      tag_20\n      jump\t// in\n    tag_19:\n      mload(0x40)\n      dup1\n      swap2\n      sub\n      swap1\n      return\n        /* \"PH/contracts/PPHTokenSale.sol\":182:207  uint256 public tokenPrice */\n    tag_5:\n      callvalue\n      dup1\n      iszero\n      tag_21\n      jumpi\n      0x00\n      dup1\n      revert\n    tag_21:\n      pop\n      tag_22\n      tag_23\n      jump\t// in\n    tag_22:\n      mload(0x40)\n      tag_24\n      swap2\n      swap1\n      tag_15\n      jump\t// in\n    tag_24:\n      mload(0x40)\n      dup1\n      swap2\n      sub\n      swap1\n      return\n        /* \"PH/contracts/PPHTokenSale.sol\":121:141  address public admin */\n    tag_6:\n      callvalue\n      dup1\n      iszero\n      tag_25\n      jumpi\n      0x00\n      dup1\n      revert\n    tag_25:\n      pop\n      tag_26\n      tag_27\n      jump\t// in\n    tag_26:\n      mload(0x40)\n      tag_28\n      swap2\n      swap1\n      tag_29\n      jump\t// in\n    tag_28:\n      mload(0x40)\n      dup1\n      swap2\n      sub\n      swap1\n      return\n        /* \"PH/contracts/PPHTokenSale.sol\":652:1348  function buyTokens(uint256 _numberOfTokens) public payable {... */\n    tag_10:\n        /* \"PH/contracts/PPHTokenSale.sol\":790:827  multiply(_numberOfTokens, tokenPrice) */\n      tag_31\n        /* \"PH/contracts/PPHTokenSale.sol\":799:814  _numberOfTokens */\n      dup2\n        /* \"PH/contracts/PPHTokenSale.sol\":816:826  tokenPrice */\n      sload(0x02)\n        /* \"PH/contracts/PPHTokenSale.sol\":790:798  multiply */\n      tag_32\n        /* \"PH/contracts/PPHTokenSale.sol\":790:827  multiply(_numberOfTokens, tokenPrice) */\n      jump\t// in\n    tag_31:\n        /* \"PH/contracts/PPHTokenSale.sol\":777:786  msg.value */\n      callvalue\n        /* \"PH/contracts/PPHTokenSale.sol\":777:827  msg.value == multiply(_numberOfTokens, tokenPrice) */\n      eq\n        /* \"PH/contracts/PPHTokenSale.sol\":769:828  require(msg.value == multiply(_numberOfTokens, tokenPrice)) */\n      tag_33\n      jumpi\n      0x00\n      dup1\n      revert\n    tag_33:\n        /* \"PH/contracts/PPHTokenSale.sol\":946:961  _numberOfTokens */\n      dup1\n        /* \"PH/contracts/PPHTokenSale.sol\":904:917  tokenContract */\n      0x01\n      0x00\n      swap1\n      sload\n      swap1\n      0x0100\n      exp\n      swap1\n      div\n      0xffffffffffffffffffffffffffffffffffffffff\n      and\n        /* \"PH/contracts/PPHTokenSale.sol\":904:927  tokenContract.balanceOf */\n      0xffffffffffffffffffffffffffffffffffffffff\n      and\n      0x70a08231\n        /* \"PH/contracts/PPHTokenSale.sol\":936:940  this */\n      address\n        /* \"PH/contracts/PPHTokenSale.sol\":904:942  tokenContract.balanceOf(address(this)) */\n      mload(0x40)\n      dup3\n      0xffffffff\n      and\n      0xe0\n      shl\n      dup2\n      mstore\n      0x04\n      add\n      tag_34\n      swap2\n      swap1\n      tag_29\n      jump\t// in\n    tag_34:\n      0x20\n      mload(0x40)\n      dup1\n      dup4\n      sub\n      dup2\n      dup7\n      gas\n      staticcall\n      iszero\n      dup1\n      iszero\n      tag_36\n      jumpi\n      returndatasize\n      0x00\n      dup1\n      returndatacopy\n      revert(0x00, returndatasize)\n    tag_36:\n      pop\n      pop\n      pop\n      pop\n      mload(0x40)\n      returndatasize\n      not(0x1f)\n      0x1f\n      dup3\n      add\n      and\n      dup3\n      add\n      dup1\n      0x40\n      mstore\n      pop\n      dup2\n      add\n      swap1\n      tag_37\n      swap2\n      swap1\n      tag_38\n      jump\t// in\n    tag_37:\n        /* \"PH/contracts/PPHTokenSale.sol\":904:961  tokenContract.balanceOf(address(this)) >= _numberOfTokens */\n      lt\n      iszero\n        /* \"PH/contracts/PPHTokenSale.sol\":883:1020  require(... */\n      tag_39\n      jumpi\n      mload(0x40)\n      0x08c379a000000000000000000000000000000000000000000000000000000000\n      dup2\n      mstore\n      0x04\n      add\n      tag_40\n      swap1\n      tag_41\n      jump\t// in\n    tag_40:\n      mload(0x40)\n      dup1\n      swap2\n      sub\n      swap1\n      revert\n    tag_39:\n        /* \"PH/contracts/PPHTokenSale.sol\":1092:1105  tokenContract */\n      0x01\n      0x00\n      swap1\n      sload\n      swap1\n      0x0100\n      exp\n      swap1\n      div\n      0xffffffffffffffffffffffffffffffffffffffff\n      and\n        /* \"PH/contracts/PPHTokenSale.sol\":1092:1114  tokenContract.transfer */\n      0xffffffffffffffffffffffffffffffffffffffff\n      and\n      0xa9059cbb\n        /* \"PH/contracts/PPHTokenSale.sol\":1115:1125  msg.sender */\n      caller\n        /* \"PH/contracts/PPHTokenSale.sol\":1127:1142  _numberOfTokens */\n      dup4\n        /* \"PH/contracts/PPHTokenSale.sol\":1092:1143  tokenContract.transfer(msg.sender, _numberOfTokens) */\n      mload(0x40)\n      dup4\n      0xffffffff\n      and\n      0xe0\n      shl\n      dup2\n      mstore\n      0x04\n      add\n      tag_42\n      swap3\n      swap2\n      swap1\n      tag_43\n      jump\t// in\n    tag_42:\n      0x20\n      mload(0x40)\n      dup1\n      dup4\n      sub\n      dup2\n      0x00\n      dup8\n      gas\n      call\n      iszero\n      dup1\n      iszero\n      tag_45\n      jumpi\n      returndatasize\n      0x00\n      dup1\n      returndatacopy\n      revert(0x00, returndatasize)\n    tag_45:\n      pop\n      pop\n      pop\n      pop\n      mload(0x40)\n      returndatasize\n      not(0x1f)\n      0x1f\n      dup3\n      add\n      and\n      dup3\n      add\n      dup1\n      0x40\n      mstore\n      pop\n      dup2\n      add\n      swap1\n      tag_46\n      swap2\n      swap1\n      tag_47\n      jump\t// in\n    tag_46:\n        /* \"PH/contracts/PPHTokenSale.sol\":1071:1190  require(... */\n      tag_48\n      jumpi\n      mload(0x40)\n      0x08c379a000000000000000000000000000000000000000000000000000000000\n      dup2\n      mstore\n      0x04\n      add\n      tag_49\n      swap1\n      tag_50\n      jump\t// in\n    tag_49:\n      mload(0x40)\n      dup1\n      swap2\n      sub\n      swap1\n      revert\n    tag_48:\n        /* \"PH/contracts/PPHTokenSale.sol\":1249:1264  _numberOfTokens */\n      dup1\n        /* \"PH/contracts/PPHTokenSale.sol\":1235:1245  tokensSold */\n      0x03\n      0x00\n        /* \"PH/contracts/PPHTokenSale.sol\":1235:1264  tokensSold += _numberOfTokens */\n      dup3\n      dup3\n      sload\n      tag_51\n      swap2\n      swap1\n      tag_52\n      jump\t// in\n    tag_51:\n      swap3\n      pop\n      pop\n      dup2\n      swap1\n      sstore\n      pop\n        /* \"PH/contracts/PPHTokenSale.sol\":1308:1341  Sell(msg.sender, _numberOfTokens) */\n      0x5e5e995ce3133561afceaa51a9a154d5db228cd7525d34df5185582c18d3df09\n        /* \"PH/contracts/PPHTokenSale.sol\":1313:1323  msg.sender */\n      caller\n        /* \"PH/contracts/PPHTokenSale.sol\":1325:1340  _numberOfTokens */\n      dup3\n        /* \"PH/contracts/PPHTokenSale.sol\":1308:1341  Sell(msg.sender, _numberOfTokens) */\n      mload(0x40)\n      tag_53\n      swap3\n      swap2\n      swap1\n      tag_43\n      jump\t// in\n    tag_53:\n      mload(0x40)\n      dup1\n      swap2\n      sub\n      swap1\n      log1\n        /* \"PH/contracts/PPHTokenSale.sol\":652:1348  function buyTokens(uint256 _numberOfTokens) public payable {... */\n      pop\n      jump\t// out\n        /* \"PH/contracts/PPHTokenSale.sol\":213:238  uint256 public tokensSold */\n    tag_13:\n      sload(0x03)\n      dup2\n      jump\t// out\n        /* \"PH/contracts/PPHTokenSale.sol\":147:176  PPHToken public tokenContract */\n    tag_18:\n      0x01\n      0x00\n      swap1\n      sload\n      swap1\n      0x0100\n      exp\n      swap1\n      div\n      0xffffffffffffffffffffffffffffffffffffffff\n      and\n      dup2\n      jump\t// out\n        /* \"PH/contracts/PPHTokenSale.sol\":182:207  uint256 public tokenPrice */\n    tag_23:\n      sload(0x02)\n      dup2\n      jump\t// out\n        /* \"PH/contracts/PPHTokenSale.sol\":121:141  address public admin */\n    tag_27:\n      0x00\n      dup1\n      sload\n      swap1\n      0x0100\n      exp\n      swap1\n      div\n      0xffffffffffffffffffffffffffffffffffffffff\n      and\n      dup2\n      jump\t// out\n        /* \"PH/contracts/PPHTokenSale.sol\":492:622  function multiply(uint256 x, uint256 y) internal pure returns (uint256 z) {... */\n    tag_32:\n        /* \"PH/contracts/PPHTokenSale.sol\":555:564  uint256 z */\n      0x00\n        /* \"PH/contracts/PPHTokenSale.sol\":589:590  0 */\n      dup1\n        /* \"PH/contracts/PPHTokenSale.sol\":584:585  y */\n      dup3\n        /* \"PH/contracts/PPHTokenSale.sol\":584:590  y == 0 */\n      eq\n        /* \"PH/contracts/PPHTokenSale.sol\":584:614  y == 0 || (z = x * y) / y == x */\n      dup1\n      tag_55\n      jumpi\n      pop\n        /* \"PH/contracts/PPHTokenSale.sol\":613:614  x */\n      dup3\n        /* \"PH/contracts/PPHTokenSale.sol\":608:609  y */\n      dup3\n        /* \"PH/contracts/PPHTokenSale.sol\":603:604  y */\n      dup4\n        /* \"PH/contracts/PPHTokenSale.sol\":599:600  x */\n      dup6\n        /* \"PH/contracts/PPHTokenSale.sol\":599:604  x * y */\n      tag_56\n      swap2\n      swap1\n      tag_57\n      jump\t// in\n    tag_56:\n        /* \"PH/contracts/PPHTokenSale.sol\":595:604  z = x * y */\n      swap3\n      pop\n      dup3\n        /* \"PH/contracts/PPHTokenSale.sol\":594:609  (z = x * y) / y */\n      tag_58\n      swap2\n      swap1\n      tag_59\n      jump\t// in\n    tag_58:\n        /* \"PH/contracts/PPHTokenSale.sol\":594:614  (z = x * y) / y == x */\n      eq\n        /* \"PH/contracts/PPHTokenSale.sol\":584:614  y == 0 || (z = x * y) / y == x */\n    tag_55:\n        /* \"PH/contracts/PPHTokenSale.sol\":576:615  require(y == 0 || (z = x * y) / y == x) */\n      tag_60\n      jumpi\n      0x00\n      dup1\n      revert\n    tag_60:\n        /* \"PH/contracts/PPHTokenSale.sol\":492:622  function multiply(uint256 x, uint256 y) internal pure returns (uint256 z) {... */\n      swap3\n      swap2\n      pop\n      pop\n      jump\t// out\n        /* \"#utility.yul\":88:205   */\n    tag_62:\n        /* \"#utility.yul\":197:198   */\n      0x00\n        /* \"#utility.yul\":194:195   */\n      dup1\n        /* \"#utility.yul\":187:199   */\n      revert\n        /* \"#utility.yul\":334:411   */\n    tag_64:\n        /* \"#utility.yul\":371:378   */\n      0x00\n        /* \"#utility.yul\":400:405   */\n      dup2\n        /* \"#utility.yul\":389:405   */\n      swap1\n      pop\n        /* \"#utility.yul\":334:411   */\n      swap2\n      swap1\n      pop\n      jump\t// out\n        /* \"#utility.yul\":417:539   */\n    tag_65:\n        /* \"#utility.yul\":490:514   */\n      tag_93\n        /* \"#utility.yul\":508:513   */\n      dup2\n        /* \"#utility.yul\":490:514   */\n      tag_64\n      jump\t// in\n    tag_93:\n        /* \"#utility.yul\":483:488   */\n      dup2\n        /* \"#utility.yul\":480:515   */\n      eq\n        /* \"#utility.yul\":470:533   */\n      tag_94\n      jumpi\n        /* \"#utility.yul\":529:530   */\n      0x00\n        /* \"#utility.yul\":526:527   */\n      dup1\n        /* \"#utility.yul\":519:531   */\n      revert\n        /* \"#utility.yul\":470:533   */\n    tag_94:\n        /* \"#utility.yul\":417:539   */\n      pop\n      jump\t// out\n        /* \"#utility.yul\":545:684   */\n    tag_66:\n        /* \"#utility.yul\":591:596   */\n      0x00\n        /* \"#utility.yul\":629:635   */\n      dup2\n        /* \"#utility.yul\":616:636   */\n      calldataload\n        /* \"#utility.yul\":607:636   */\n      swap1\n      pop\n        /* \"#utility.yul\":645:678   */\n      tag_96\n        /* \"#utility.yul\":672:677   */\n      dup2\n        /* \"#utility.yul\":645:678   */\n      tag_65\n      jump\t// in\n    tag_96:\n        /* \"#utility.yul\":545:684   */\n      swap3\n      swap2\n      pop\n      pop\n      jump\t// out\n        /* \"#utility.yul\":690:1019   */\n    tag_9:\n        /* \"#utility.yul\":749:755   */\n      0x00\n        /* \"#utility.yul\":798:800   */\n      0x20\n        /* \"#utility.yul\":786:795   */\n      dup3\n        /* \"#utility.yul\":777:784   */\n      dup5\n        /* \"#utility.yul\":773:796   */\n      sub\n        /* \"#utility.yul\":769:801   */\n      slt\n        /* \"#utility.yul\":766:885   */\n      iszero\n      tag_98\n      jumpi\n        /* \"#utility.yul\":804:883   */\n      tag_99\n      tag_62\n      jump\t// in\n    tag_99:\n        /* \"#utility.yul\":766:885   */\n    tag_98:\n        /* \"#utility.yul\":924:925   */\n      0x00\n        /* \"#utility.yul\":949:1002   */\n      tag_100\n        /* \"#utility.yul\":994:1001   */\n      dup5\n        /* \"#utility.yul\":985:991   */\n      dup3\n        /* \"#utility.yul\":974:983   */\n      dup6\n        /* \"#utility.yul\":970:992   */\n      add\n        /* \"#utility.yul\":949:1002   */\n      tag_66\n      jump\t// in\n    tag_100:\n        /* \"#utility.yul\":939:1002   */\n      swap2\n      pop\n        /* \"#utility.yul\":895:1012   */\n      pop\n        /* \"#utility.yul\":690:1019   */\n      swap3\n      swap2\n      pop\n      pop\n      jump\t// out\n        /* \"#utility.yul\":1025:1143   */\n    tag_67:\n        /* \"#utility.yul\":1112:1136   */\n      tag_102\n        /* \"#utility.yul\":1130:1135   */\n      dup2\n        /* \"#utility.yul\":1112:1136   */\n      tag_64\n      jump\t// in\n    tag_102:\n        /* \"#utility.yul\":1107:1110   */\n      dup3\n        /* \"#utility.yul\":1100:1137   */\n      mstore\n        /* \"#utility.yul\":1025:1143   */\n      pop\n      pop\n      jump\t// out\n        /* \"#utility.yul\":1149:1371   */\n    tag_15:\n        /* \"#utility.yul\":1242:1246   */\n      0x00\n        /* \"#utility.yul\":1280:1282   */\n      0x20\n        /* \"#utility.yul\":1269:1278   */\n      dup3\n        /* \"#utility.yul\":1265:1283   */\n      add\n        /* \"#utility.yul\":1257:1283   */\n      swap1\n      pop\n        /* \"#utility.yul\":1293:1364   */\n      tag_104\n        /* \"#utility.yul\":1361:1362   */\n      0x00\n        /* \"#utility.yul\":1350:1359   */\n      dup4\n        /* \"#utility.yul\":1346:1363   */\n      add\n        /* \"#utility.yul\":1337:1343   */\n      dup5\n        /* \"#utility.yul\":1293:1364   */\n      tag_67\n      jump\t// in\n    tag_104:\n        /* \"#utility.yul\":1149:1371   */\n      swap3\n      swap2\n      pop\n      pop\n      jump\t// out\n        /* \"#utility.yul\":1377:1503   */\n    tag_68:\n        /* \"#utility.yul\":1414:1421   */\n      0x00\n        /* \"#utility.yul\":1454:1496   */\n      0xffffffffffffffffffffffffffffffffffffffff\n        /* \"#utility.yul\":1447:1452   */\n      dup3\n        /* \"#utility.yul\":1443:1497   */\n      and\n        /* \"#utility.yul\":1432:1497   */\n      swap1\n      pop\n        /* \"#utility.yul\":1377:1503   */\n      swap2\n      swap1\n      pop\n      jump\t// out\n        /* \"#utility.yul\":1509:1569   */\n    tag_69:\n        /* \"#utility.yul\":1537:1540   */\n      0x00\n        /* \"#utility.yul\":1558:1563   */\n      dup2\n        /* \"#utility.yul\":1551:1563   */\n      swap1\n      pop\n        /* \"#utility.yul\":1509:1569   */\n      swap2\n      swap1\n      pop\n      jump\t// out\n        /* \"#utility.yul\":1575:1717   */\n    tag_70:\n        /* \"#utility.yul\":1625:1634   */\n      0x00\n        /* \"#utility.yul\":1658:1711   */\n      tag_108\n        /* \"#utility.yul\":1676:1710   */\n      tag_109\n        /* \"#utility.yul\":1685:1709   */\n      tag_110\n        /* \"#utility.yul\":1703:1708   */\n      dup5\n        /* \"#utility.yul\":1685:1709   */\n      tag_68\n      jump\t// in\n    tag_110:\n        /* \"#utility.yul\":1676:1710   */\n      tag_69\n      jump\t// in\n    tag_109:\n        /* \"#utility.yul\":1658:1711   */\n      tag_68\n      jump\t// in\n    tag_108:\n        /* \"#utility.yul\":1645:1711   */\n      swap1\n      pop\n        /* \"#utility.yul\":1575:1717   */\n      swap2\n      swap1\n      pop\n      jump\t// out\n        /* \"#utility.yul\":1723:1849   */\n    tag_71:\n        /* \"#utility.yul\":1773:1782   */\n      0x00\n        /* \"#utility.yul\":1806:1843   */\n      tag_112\n        /* \"#utility.yul\":1837:1842   */\n      dup3\n        /* \"#utility.yul\":1806:1843   */\n      tag_70\n      jump\t// in\n    tag_112:\n        /* \"#utility.yul\":1793:1843   */\n      swap1\n      pop\n        /* \"#utility.yul\":1723:1849   */\n      swap2\n      swap1\n      pop\n      jump\t// out\n        /* \"#utility.yul\":1855:1997   */\n    tag_72:\n        /* \"#utility.yul\":1921:1930   */\n      0x00\n        /* \"#utility.yul\":1954:1991   */\n      tag_114\n        /* \"#utility.yul\":1985:1990   */\n      dup3\n        /* \"#utility.yul\":1954:1991   */\n      tag_71\n      jump\t// in\n    tag_114:\n        /* \"#utility.yul\":1941:1991   */\n      swap1\n      pop\n        /* \"#utility.yul\":1855:1997   */\n      swap2\n      swap1\n      pop\n      jump\t// out\n        /* \"#utility.yul\":2003:2166   */\n    tag_73:\n        /* \"#utility.yul\":2106:2159   */\n      tag_116\n        /* \"#utility.yul\":2153:2158   */\n      dup2\n        /* \"#utility.yul\":2106:2159   */\n      tag_72\n      jump\t// in\n    tag_116:\n        /* \"#utility.yul\":2101:2104   */\n      dup3\n        /* \"#utility.yul\":2094:2160   */\n      mstore\n        /* \"#utility.yul\":2003:2166   */\n      pop\n      pop\n      jump\t// out\n        /* \"#utility.yul\":2172:2426   */\n    tag_20:\n        /* \"#utility.yul\":2281:2285   */\n      0x00\n        /* \"#utility.yul\":2319:2321   */\n      0x20\n        /* \"#utility.yul\":2308:2317   */\n      dup3\n        /* \"#utility.yul\":2304:2322   */\n      add\n        /* \"#utility.yul\":2296:2322   */\n      swap1\n      pop\n        /* \"#utility.yul\":2332:2419   */\n      tag_118\n        /* \"#utility.yul\":2416:2417   */\n      0x00\n        /* \"#utility.yul\":2405:2414   */\n      dup4\n        /* \"#utility.yul\":2401:2418   */\n      add\n        /* \"#utility.yul\":2392:2398   */\n      dup5\n        /* \"#utility.yul\":2332:2419   */\n      tag_73\n      jump\t// in\n    tag_118:\n        /* \"#utility.yul\":2172:2426   */\n      swap3\n      swap2\n      pop\n      pop\n      jump\t// out\n        /* \"#utility.yul\":2432:2528   */\n    tag_74:\n        /* \"#utility.yul\":2469:2476   */\n      0x00\n        /* \"#utility.yul\":2498:2522   */\n      tag_120\n        /* \"#utility.yul\":2516:2521   */\n      dup3\n        /* \"#utility.yul\":2498:2522   */\n      tag_68\n      jump\t// in\n    tag_120:\n        /* \"#utility.yul\":2487:2522   */\n      swap1\n      pop\n        /* \"#utility.yul\":2432:2528   */\n      swap2\n      swap1\n      pop\n      jump\t// out\n        /* \"#utility.yul\":2534:2652   */\n    tag_75:\n        /* \"#utility.yul\":2621:2645   */\n      tag_122\n        /* \"#utility.yul\":2639:2644   */\n      dup2\n        /* \"#utility.yul\":2621:2645   */\n      tag_74\n      jump\t// in\n    tag_122:\n        /* \"#utility.yul\":2616:2619   */\n      dup3\n        /* \"#utility.yul\":2609:2646   */\n      mstore\n        /* \"#utility.yul\":2534:2652   */\n      pop\n      pop\n      jump\t// out\n        /* \"#utility.yul\":2658:2880   */\n    tag_29:\n        /* \"#utility.yul\":2751:2755   */\n      0x00\n        /* \"#utility.yul\":2789:2791   */\n      0x20\n        /* \"#utility.yul\":2778:2787   */\n      dup3\n        /* \"#utility.yul\":2774:2792   */\n      add\n        /* \"#utility.yul\":2766:2792   */\n      swap1\n      pop\n        /* \"#utility.yul\":2802:2873   */\n      tag_124\n        /* \"#utility.yul\":2870:2871   */\n      0x00\n        /* \"#utility.yul\":2859:2868   */\n      dup4\n        /* \"#utility.yul\":2855:2872   */\n      add\n        /* \"#utility.yul\":2846:2852   */\n      dup5\n        /* \"#utility.yul\":2802:2873   */\n      tag_75\n      jump\t// in\n    tag_124:\n        /* \"#utility.yul\":2658:2880   */\n      swap3\n      swap2\n      pop\n      pop\n      jump\t// out\n        /* \"#utility.yul\":2886:3029   */\n    tag_76:\n        /* \"#utility.yul\":2943:2948   */\n      0x00\n        /* \"#utility.yul\":2974:2980   */\n      dup2\n        /* \"#utility.yul\":2968:2981   */\n      mload\n        /* \"#utility.yul\":2959:2981   */\n      swap1\n      pop\n        /* \"#utility.yul\":2990:3023   */\n      tag_126\n        /* \"#utility.yul\":3017:3022   */\n      dup2\n        /* \"#utility.yul\":2990:3023   */\n      tag_65\n      jump\t// in\n    tag_126:\n        /* \"#utility.yul\":2886:3029   */\n      swap3\n      swap2\n      pop\n      pop\n      jump\t// out\n        /* \"#utility.yul\":3035:3386   */\n    tag_38:\n        /* \"#utility.yul\":3105:3111   */\n      0x00\n        /* \"#utility.yul\":3154:3156   */\n      0x20\n        /* \"#utility.yul\":3142:3151   */\n      dup3\n        /* \"#utility.yul\":3133:3140   */\n      dup5\n        /* \"#utility.yul\":3129:3152   */\n      sub\n        /* \"#utility.yul\":3125:3157   */\n      slt\n        /* \"#utility.yul\":3122:3241   */\n      iszero\n      tag_128\n      jumpi\n        /* \"#utility.yul\":3160:3239   */\n      tag_129\n      tag_62\n      jump\t// in\n    tag_129:\n        /* \"#utility.yul\":3122:3241   */\n    tag_128:\n        /* \"#utility.yul\":3280:3281   */\n      0x00\n        /* \"#utility.yul\":3305:3369   */\n      tag_130\n        /* \"#utility.yul\":3361:3368   */\n      dup5\n        /* \"#utility.yul\":3352:3358   */\n      dup3\n        /* \"#utility.yul\":3341:3350   */\n      dup6\n        /* \"#utility.yul\":3337:3359   */\n      add\n        /* \"#utility.yul\":3305:3369   */\n      tag_76\n      jump\t// in\n    tag_130:\n        /* \"#utility.yul\":3295:3369   */\n      swap2\n      pop\n        /* \"#utility.yul\":3251:3379   */\n      pop\n        /* \"#utility.yul\":3035:3386   */\n      swap3\n      swap2\n      pop\n      pop\n      jump\t// out\n        /* \"#utility.yul\":3392:3561   */\n    tag_77:\n        /* \"#utility.yul\":3476:3487   */\n      0x00\n        /* \"#utility.yul\":3510:3516   */\n      dup3\n        /* \"#utility.yul\":3505:3508   */\n      dup3\n        /* \"#utility.yul\":3498:3517   */\n      mstore\n        /* \"#utility.yul\":3550:3554   */\n      0x20\n        /* \"#utility.yul\":3545:3548   */\n      dup3\n        /* \"#utility.yul\":3541:3555   */\n      add\n        /* \"#utility.yul\":3526:3555   */\n      swap1\n      pop\n        /* \"#utility.yul\":3392:3561   */\n      swap3\n      swap2\n      pop\n      pop\n      jump\t// out\n        /* \"#utility.yul\":3567:3787   */\n    tag_78:\n        /* \"#utility.yul\":3707:3741   */\n      0x4e6f7420656e6f75676820746f6b656e7320696e2074686520636f6e74726163\n        /* \"#utility.yul\":3703:3704   */\n      0x00\n        /* \"#utility.yul\":3695:3701   */\n      dup3\n        /* \"#utility.yul\":3691:3705   */\n      add\n        /* \"#utility.yul\":3684:3742   */\n      mstore\n        /* \"#utility.yul\":3776:3779   */\n      0x7400000000000000000000000000000000000000000000000000000000000000\n        /* \"#utility.yul\":3771:3773   */\n      0x20\n        /* \"#utility.yul\":3763:3769   */\n      dup3\n        /* \"#utility.yul\":3759:3774   */\n      add\n        /* \"#utility.yul\":3752:3780   */\n      mstore\n        /* \"#utility.yul\":3567:3787   */\n      pop\n      jump\t// out\n        /* \"#utility.yul\":3793:4159   */\n    tag_79:\n        /* \"#utility.yul\":3935:3938   */\n      0x00\n        /* \"#utility.yul\":3956:4023   */\n      tag_134\n        /* \"#utility.yul\":4020:4022   */\n      0x21\n        /* \"#utility.yul\":4015:4018   */\n      dup4\n        /* \"#utility.yul\":3956:4023   */\n      tag_77\n      jump\t// in\n    tag_134:\n        /* \"#utility.yul\":3949:4023   */\n      swap2\n      pop\n        /* \"#utility.yul\":4032:4125   */\n      tag_135\n        /* \"#utility.yul\":4121:4124   */\n      dup3\n        /* \"#utility.yul\":4032:4125   */\n      tag_78\n      jump\t// in\n    tag_135:\n        /* \"#utility.yul\":4150:4152   */\n      0x40\n        /* \"#utility.yul\":4145:4148   */\n      dup3\n        /* \"#utility.yul\":4141:4153   */\n      add\n        /* \"#utility.yul\":4134:4153   */\n      swap1\n      pop\n        /* \"#utility.yul\":3793:4159   */\n      swap2\n      swap1\n      pop\n      jump\t// out\n        /* \"#utility.yul\":4165:4584   */\n    tag_41:\n        /* \"#utility.yul\":4331:4335   */\n      0x00\n        /* \"#utility.yul\":4369:4371   */\n      0x20\n        /* \"#utility.yul\":4358:4367   */\n      dup3\n        /* \"#utility.yul\":4354:4372   */\n      add\n        /* \"#utility.yul\":4346:4372   */\n      swap1\n      pop\n        /* \"#utility.yul\":4418:4427   */\n      dup2\n        /* \"#utility.yul\":4412:4416   */\n      dup2\n        /* \"#utility.yul\":4408:4428   */\n      sub\n        /* \"#utility.yul\":4404:4405   */\n      0x00\n        /* \"#utility.yul\":4393:4402   */\n      dup4\n        /* \"#utility.yul\":4389:4406   */\n      add\n        /* \"#utility.yul\":4382:4429   */\n      mstore\n        /* \"#utility.yul\":4446:4577   */\n      tag_137\n        /* \"#utility.yul\":4572:4576   */\n      dup2\n        /* \"#utility.yul\":4446:4577   */\n      tag_79\n      jump\t// in\n    tag_137:\n        /* \"#utility.yul\":4438:4577   */\n      swap1\n      pop\n        /* \"#utility.yul\":4165:4584   */\n      swap2\n      swap1\n      pop\n      jump\t// out\n        /* \"#utility.yul\":4590:4922   */\n    tag_43:\n        /* \"#utility.yul\":4711:4715   */\n      0x00\n        /* \"#utility.yul\":4749:4751   */\n      0x40\n        /* \"#utility.yul\":4738:4747   */\n      dup3\n        /* \"#utility.yul\":4734:4752   */\n      add\n        /* \"#utility.yul\":4726:4752   */\n      swap1\n      pop\n        /* \"#utility.yul\":4762:4833   */\n      tag_139\n        /* \"#utility.yul\":4830:4831   */\n      0x00\n        /* \"#utility.yul\":4819:4828   */\n      dup4\n        /* \"#utility.yul\":4815:4832   */\n      add\n        /* \"#utility.yul\":4806:4812   */\n      dup6\n        /* \"#utility.yul\":4762:4833   */\n      tag_75\n      jump\t// in\n    tag_139:\n        /* \"#utility.yul\":4843:4915   */\n      tag_140\n        /* \"#utility.yul\":4911:4913   */\n      0x20\n        /* \"#utility.yul\":4900:4909   */\n      dup4\n        /* \"#utility.yul\":4896:4914   */\n      add\n        /* \"#utility.yul\":4887:4893   */\n      dup5\n        /* \"#utility.yul\":4843:4915   */\n      tag_67\n      jump\t// in\n    tag_140:\n        /* \"#utility.yul\":4590:4922   */\n      swap4\n      swap3\n      pop\n      pop\n      pop\n      jump\t// out\n        /* \"#utility.yul\":4928:5018   */\n    tag_80:\n        /* \"#utility.yul\":4962:4969   */\n      0x00\n        /* \"#utility.yul\":5005:5010   */\n      dup2\n        /* \"#utility.yul\":4998:5011   */\n      iszero\n        /* \"#utility.yul\":4991:5012   */\n      iszero\n        /* \"#utility.yul\":4980:5012   */\n      swap1\n      pop\n        /* \"#utility.yul\":4928:5018   */\n      swap2\n      swap1\n      pop\n      jump\t// out\n        /* \"#utility.yul\":5024:5140   */\n    tag_81:\n        /* \"#utility.yul\":5094:5115   */\n      tag_143\n        /* \"#utility.yul\":5109:5114   */\n      dup2\n        /* \"#utility.yul\":5094:5115   */\n      tag_80\n      jump\t// in\n    tag_143:\n        /* \"#utility.yul\":5087:5092   */\n      dup2\n        /* \"#utility.yul\":5084:5116   */\n      eq\n        /* \"#utility.yul\":5074:5134   */\n      tag_144\n      jumpi\n        /* \"#utility.yul\":5130:5131   */\n      0x00\n        /* \"#utility.yul\":5127:5128   */\n      dup1\n        /* \"#utility.yul\":5120:5132   */\n      revert\n        /* \"#utility.yul\":5074:5134   */\n    tag_144:\n        /* \"#utility.yul\":5024:5140   */\n      pop\n      jump\t// out\n        /* \"#utility.yul\":5146:5283   */\n    tag_82:\n        /* \"#utility.yul\":5200:5205   */\n      0x00\n        /* \"#utility.yul\":5231:5237   */\n      dup2\n        /* \"#utility.yul\":5225:5238   */\n      mload\n        /* \"#utility.yul\":5216:5238   */\n      swap1\n      pop\n        /* \"#utility.yul\":5247:5277   */\n      tag_146\n        /* \"#utility.yul\":5271:5276   */\n      dup2\n        /* \"#utility.yul\":5247:5277   */\n      tag_81\n      jump\t// in\n    tag_146:\n        /* \"#utility.yul\":5146:5283   */\n      swap3\n      swap2\n      pop\n      pop\n      jump\t// out\n        /* \"#utility.yul\":5289:5634   */\n    tag_47:\n        /* \"#utility.yul\":5356:5362   */\n      0x00\n        /* \"#utility.yul\":5405:5407   */\n      0x20\n        /* \"#utility.yul\":5393:5402   */\n      dup3\n        /* \"#utility.yul\":5384:5391   */\n      dup5\n        /* \"#utility.yul\":5380:5403   */\n      sub\n        /* \"#utility.yul\":5376:5408   */\n      slt\n        /* \"#utility.yul\":5373:5492   */\n      iszero\n      tag_148\n      jumpi\n        /* \"#utility.yul\":5411:5490   */\n      tag_149\n      tag_62\n      jump\t// in\n    tag_149:\n        /* \"#utility.yul\":5373:5492   */\n    tag_148:\n        /* \"#utility.yul\":5531:5532   */\n      0x00\n        /* \"#utility.yul\":5556:5617   */\n      tag_150\n        /* \"#utility.yul\":5609:5616   */\n      dup5\n        /* \"#utility.yul\":5600:5606   */\n      dup3\n        /* \"#utility.yul\":5589:5598   */\n      dup6\n        /* \"#utility.yul\":5585:5607   */\n      add\n        /* \"#utility.yul\":5556:5617   */\n      tag_82\n      jump\t// in\n    tag_150:\n        /* \"#utility.yul\":5546:5617   */\n      swap2\n      pop\n        /* \"#utility.yul\":5502:5627   */\n      pop\n        /* \"#utility.yul\":5289:5634   */\n      swap3\n      swap2\n      pop\n      pop\n      jump\t// out\n        /* \"#utility.yul\":5640:5811   */\n    tag_83:\n        /* \"#utility.yul\":5780:5803   */\n      0x546f6b656e207472616e73666572206661696c65640000000000000000000000\n        /* \"#utility.yul\":5776:5777   */\n      0x00\n        /* \"#utility.yul\":5768:5774   */\n      dup3\n        /* \"#utility.yul\":5764:5778   */\n      add\n        /* \"#utility.yul\":5757:5804   */\n      mstore\n        /* \"#utility.yul\":5640:5811   */\n      pop\n      jump\t// out\n        /* \"#utility.yul\":5817:6183   */\n    tag_84:\n        /* \"#utility.yul\":5959:5962   */\n      0x00\n        /* \"#utility.yul\":5980:6047   */\n      tag_153\n        /* \"#utility.yul\":6044:6046   */\n      0x15\n        /* \"#utility.yul\":6039:6042   */\n      dup4\n        /* \"#utility.yul\":5980:6047   */\n      tag_77\n      jump\t// in\n    tag_153:\n        /* \"#utility.yul\":5973:6047   */\n      swap2\n      pop\n        /* \"#utility.yul\":6056:6149   */\n      tag_154\n        /* \"#utility.yul\":6145:6148   */\n      dup3\n        /* \"#utility.yul\":6056:6149   */\n      tag_83\n      jump\t// in\n    tag_154:\n        /* \"#utility.yul\":6174:6176   */\n      0x20\n        /* \"#utility.yul\":6169:6172   */\n      dup3\n        /* \"#utility.yul\":6165:6177   */\n      add\n        /* \"#utility.yul\":6158:6177   */\n      swap1\n      pop\n        /* \"#utility.yul\":5817:6183   */\n      swap2\n      swap1\n      pop\n      jump\t// out\n        /* \"#utility.yul\":6189:6608   */\n    tag_50:\n        /* \"#utility.yul\":6355:6359   */\n      0x00\n        /* \"#utility.yul\":6393:6395   */\n      0x20\n        /* \"#utility.yul\":6382:6391   */\n      dup3\n        /* \"#utility.yul\":6378:6396   */\n      add\n        /* \"#utility.yul\":6370:6396   */\n      swap1\n      pop\n        /* \"#utility.yul\":6442:6451   */\n      dup2\n        /* \"#utility.yul\":6436:6440   */\n      dup2\n        /* \"#utility.yul\":6432:6452   */\n      sub\n        /* \"#utility.yul\":6428:6429   */\n      0x00\n        /* \"#utility.yul\":6417:6426   */\n      dup4\n        /* \"#utility.yul\":6413:6430   */\n      add\n        /* \"#utility.yul\":6406:6453   */\n      mstore\n        /* \"#utility.yul\":6470:6601   */\n      tag_156\n        /* \"#utility.yul\":6596:6600   */\n      dup2\n        /* \"#utility.yul\":6470:6601   */\n      tag_84\n      jump\t// in\n    tag_156:\n        /* \"#utility.yul\":6462:6601   */\n      swap1\n      pop\n        /* \"#utility.yul\":6189:6608   */\n      swap2\n      swap1\n      pop\n      jump\t// out\n        /* \"#utility.yul\":6614:6794   */\n    tag_85:\n        /* \"#utility.yul\":6662:6739   */\n      0x4e487b7100000000000000000000000000000000000000000000000000000000\n        /* \"#utility.yul\":6659:6660   */\n      0x00\n        /* \"#utility.yul\":6652:6740   */\n      mstore\n        /* \"#utility.yul\":6759:6763   */\n      0x11\n        /* \"#utility.yul\":6756:6757   */\n      0x04\n        /* \"#utility.yul\":6749:6764   */\n      mstore\n        /* \"#utility.yul\":6783:6787   */\n      0x24\n        /* \"#utility.yul\":6780:6781   */\n      0x00\n        /* \"#utility.yul\":6773:6788   */\n      revert\n        /* \"#utility.yul\":6800:6991   */\n    tag_52:\n        /* \"#utility.yul\":6840:6843   */\n      0x00\n        /* \"#utility.yul\":6859:6879   */\n      tag_159\n        /* \"#utility.yul\":6877:6878   */\n      dup3\n        /* \"#utility.yul\":6859:6879   */\n      tag_64\n      jump\t// in\n    tag_159:\n        /* \"#utility.yul\":6854:6879   */\n      swap2\n      pop\n        /* \"#utility.yul\":6893:6913   */\n      tag_160\n        /* \"#utility.yul\":6911:6912   */\n      dup4\n        /* \"#utility.yul\":6893:6913   */\n      tag_64\n      jump\t// in\n    tag_160:\n        /* \"#utility.yul\":6888:6913   */\n      swap3\n      pop\n        /* \"#utility.yul\":6936:6937   */\n      dup3\n        /* \"#utility.yul\":6933:6934   */\n      dup3\n        /* \"#utility.yul\":6929:6938   */\n      add\n        /* \"#utility.yul\":6922:6938   */\n      swap1\n      pop\n        /* \"#utility.yul\":6957:6960   */\n      dup1\n        /* \"#utility.yul\":6954:6955   */\n      dup3\n        /* \"#utility.yul\":6951:6961   */\n      gt\n        /* \"#utility.yul\":6948:6984   */\n      iszero\n      tag_161\n      jumpi\n        /* \"#utility.yul\":6964:6982   */\n      tag_162\n      tag_85\n      jump\t// in\n    tag_162:\n        /* \"#utility.yul\":6948:6984   */\n    tag_161:\n        /* \"#utility.yul\":6800:6991   */\n      swap3\n      swap2\n      pop\n      pop\n      jump\t// out\n        /* \"#utility.yul\":6997:7407   */\n    tag_57:\n        /* \"#utility.yul\":7037:7044   */\n      0x00\n        /* \"#utility.yul\":7060:7080   */\n      tag_164\n        /* \"#utility.yul\":7078:7079   */\n      dup3\n        /* \"#utility.yul\":7060:7080   */\n      tag_64\n      jump\t// in\n    tag_164:\n        /* \"#utility.yul\":7055:7080   */\n      swap2\n      pop\n        /* \"#utility.yul\":7094:7114   */\n      tag_165\n        /* \"#utility.yul\":7112:7113   */\n      dup4\n        /* \"#utility.yul\":7094:7114   */\n      tag_64\n      jump\t// in\n    tag_165:\n        /* \"#utility.yul\":7089:7114   */\n      swap3\n      pop\n        /* \"#utility.yul\":7149:7150   */\n      dup3\n        /* \"#utility.yul\":7146:7147   */\n      dup3\n        /* \"#utility.yul\":7142:7151   */\n      mul\n        /* \"#utility.yul\":7171:7201   */\n      tag_166\n        /* \"#utility.yul\":7189:7200   */\n      dup2\n        /* \"#utility.yul\":7171:7201   */\n      tag_64\n      jump\t// in\n    tag_166:\n        /* \"#utility.yul\":7160:7201   */\n      swap2\n      pop\n        /* \"#utility.yul\":7350:7351   */\n      dup3\n        /* \"#utility.yul\":7341:7348   */\n      dup3\n        /* \"#utility.yul\":7337:7352   */\n      div\n        /* \"#utility.yul\":7334:7335   */\n      dup5\n        /* \"#utility.yul\":7331:7353   */\n      eq\n        /* \"#utility.yul\":7311:7312   */\n      dup4\n        /* \"#utility.yul\":7304:7313   */\n      iszero\n        /* \"#utility.yul\":7284:7367   */\n      or\n        /* \"#utility.yul\":7261:7400   */\n      tag_167\n      jumpi\n        /* \"#utility.yul\":7380:7398   */\n      tag_168\n      tag_85\n      jump\t// in\n    tag_168:\n        /* \"#utility.yul\":7261:7400   */\n    tag_167:\n        /* \"#utility.yul\":7045:7407   */\n      pop\n        /* \"#utility.yul\":6997:7407   */\n      swap3\n      swap2\n      pop\n      pop\n      jump\t// out\n        /* \"#utility.yul\":7413:7593   */\n    tag_86:\n        /* \"#utility.yul\":7461:7538   */\n      0x4e487b7100000000000000000000000000000000000000000000000000000000\n        /* \"#utility.yul\":7458:7459   */\n      0x00\n        /* \"#utility.yul\":7451:7539   */\n      mstore\n        /* \"#utility.yul\":7558:7562   */\n      0x12\n        /* \"#utility.yul\":7555:7556   */\n      0x04\n        /* \"#utility.yul\":7548:7563   */\n      mstore\n        /* \"#utility.yul\":7582:7586   */\n      0x24\n        /* \"#utility.yul\":7579:7580   */\n      0x00\n        /* \"#utility.yul\":7572:7587   */\n      revert\n        /* \"#utility.yul\":7599:7784   */\n    tag_59:\n        /* \"#utility.yul\":7639:7640   */\n      0x00\n        /* \"#utility.yul\":7656:7676   */\n      tag_171\n        /* \"#utility.yul\":7674:7675   */\n      dup3\n        /* \"#utility.yul\":7656:7676   */\n      tag_64\n      jump\t// in\n    tag_171:\n        /* \"#utility.yul\":7651:7676   */\n      swap2\n      pop\n        /* \"#utility.yul\":7690:7710   */\n      tag_172\n        /* \"#utility.yul\":7708:7709   */\n      dup4\n        /* \"#utility.yul\":7690:7710   */\n      tag_64\n      jump\t// in\n    tag_172:\n        /* \"#utility.yul\":7685:7710   */\n      swap3\n      pop\n        /* \"#utility.yul\":7729:7730   */\n      dup3\n        /* \"#utility.yul\":7719:7754   */\n      tag_173\n      jumpi\n        /* \"#utility.yul\":7734:7752   */\n      tag_174\n      tag_86\n      jump\t// in\n    tag_174:\n        /* \"#utility.yul\":7719:7754   */\n    tag_173:\n        /* \"#utility.yul\":7776:7777   */\n      dup3\n        /* \"#utility.yul\":7773:7774   */\n      dup3\n        /* \"#utility.yul\":7769:7778   */\n      div\n        /* \"#utility.yul\":7764:7778   */\n      swap1\n      pop\n        /* \"#utility.yul\":7599:7784   */\n      swap3\n      swap2\n      pop\n      pop\n      jump\t// out\n\n    auxdata: 0xa2646970667358221220ce00636153ceebd2923c820bb8bd632fef317e87c910dc6be13439bdb2dc0c0564736f6c63430008160033\n}\n",
				"bytecode": {
					"linkReferences": {},
					"object": "608060405234801561000f575f80fd5b506040516109bb3803806109bb83398181016040528101906100319190610160565b335f806101000a81548173ffffffffffffffffffffffffffffffffffffffff021916908373ffffffffffffffffffffffffffffffffffffffff1602179055508160015f6101000a81548173ffffffffffffffffffffffffffffffffffffffff021916908373ffffffffffffffffffffffffffffffffffffffff16021790555080600281905550505061019e565b5f80fd5b5f73ffffffffffffffffffffffffffffffffffffffff82169050919050565b5f6100eb826100c2565b9050919050565b5f6100fc826100e1565b9050919050565b61010c816100f2565b8114610116575f80fd5b50565b5f8151905061012781610103565b92915050565b5f819050919050565b61013f8161012d565b8114610149575f80fd5b50565b5f8151905061015a81610136565b92915050565b5f8060408385031215610176576101756100be565b5b5f61018385828601610119565b92505060206101948582860161014c565b9150509250929050565b610810806101ab5f395ff3fe608060405260043610610049575f3560e01c80633610724e1461004d578063518ab2a81461006957806355a373d6146100935780637ff9b596146100bd578063f851a440146100e7575b5f80fd5b610067600480360381019061006291906103f1565b610111565b005b348015610074575f80fd5b5061007d610331565b60405161008a919061042b565b60405180910390f35b34801561009e575f80fd5b506100a7610337565b6040516100b491906104be565b60405180910390f35b3480156100c8575f80fd5b506100d161035c565b6040516100de919061042b565b60405180910390f35b3480156100f2575f80fd5b506100fb610362565b60405161010891906104f7565b60405180910390f35b61011d81600254610385565b3414610127575f80fd5b8060015f9054906101000a900473ffffffffffffffffffffffffffffffffffffffff1673ffffffffffffffffffffffffffffffffffffffff166370a08231306040518263ffffffff1660e01b815260040161018291906104f7565b602060405180830381865afa15801561019d573d5f803e3d5ffd5b505050506040513d601f19601f820116820180604052508101906101c19190610524565b1015610202576040517f08c379a00000000000000000000000000000000000000000000000000000000081526004016101f9906105cf565b60405180910390fd5b60015f9054906101000a900473ffffffffffffffffffffffffffffffffffffffff1673ffffffffffffffffffffffffffffffffffffffff1663a9059cbb33836040518363ffffffff1660e01b815260040161025e9291906105ed565b6020604051808303815f875af115801561027a573d5f803e3d5ffd5b505050506040513d601f19601f8201168201806040525081019061029e9190610649565b6102dd576040517f08c379a00000000000000000000000000000000000000000000000000000000081526004016102d4906106be565b60405180910390fd5b8060035f8282546102ee9190610709565b925050819055507f5e5e995ce3133561afceaa51a9a154d5db228cd7525d34df5185582c18d3df0933826040516103269291906105ed565b60405180910390a150565b60035481565b60015f9054906101000a900473ffffffffffffffffffffffffffffffffffffffff1681565b60025481565b5f8054906101000a900473ffffffffffffffffffffffffffffffffffffffff1681565b5f808214806103ac57508282838561039d919061073c565b9250826103aa91906107aa565b145b6103b4575f80fd5b92915050565b5f80fd5b5f819050919050565b6103d0816103be565b81146103da575f80fd5b50565b5f813590506103eb816103c7565b92915050565b5f60208284031215610406576104056103ba565b5b5f610413848285016103dd565b91505092915050565b610425816103be565b82525050565b5f60208201905061043e5f83018461041c565b92915050565b5f73ffffffffffffffffffffffffffffffffffffffff82169050919050565b5f819050919050565b5f61048661048161047c84610444565b610463565b610444565b9050919050565b5f6104978261046c565b9050919050565b5f6104a88261048d565b9050919050565b6104b88161049e565b82525050565b5f6020820190506104d15f8301846104af565b92915050565b5f6104e182610444565b9050919050565b6104f1816104d7565b82525050565b5f60208201905061050a5f8301846104e8565b92915050565b5f8151905061051e816103c7565b92915050565b5f60208284031215610539576105386103ba565b5b5f61054684828501610510565b91505092915050565b5f82825260208201905092915050565b7f4e6f7420656e6f75676820746f6b656e7320696e2074686520636f6e747261635f8201527f7400000000000000000000000000000000000000000000000000000000000000602082015250565b5f6105b960218361054f565b91506105c48261055f565b604082019050919050565b5f6020820190508181035f8301526105e6816105ad565b9050919050565b5f6040820190506106005f8301856104e8565b61060d602083018461041c565b9392505050565b5f8115159050919050565b61062881610614565b8114610632575f80fd5b50565b5f815190506106438161061f565b92915050565b5f6020828403121561065e5761065d6103ba565b5b5f61066b84828501610635565b91505092915050565b7f546f6b656e207472616e73666572206661696c656400000000000000000000005f82015250565b5f6106a860158361054f565b91506106b382610674565b602082019050919050565b5f6020820190508181035f8301526106d58161069c565b9050919050565b7f4e487b71000000000000000000000000000000000000000000000000000000005f52601160045260245ffd5b5f610713826103be565b915061071e836103be565b9250828201905080821115610736576107356106dc565b5b92915050565b5f610746826103be565b9150610751836103be565b925082820261075f816103be565b91508282048414831517610776576107756106dc565b5b5092915050565b7f4e487b71000000000000000000000000000000000000000000000000000000005f52601260045260245ffd5b5f6107b4826103be565b91506107bf836103be565b9250826107cf576107ce61077d565b5b82820490509291505056fea2646970667358221220ce00636153ceebd2923c820bb8bd632fef317e87c910dc6be13439bdb2dc0c0564736f6c63430008160033",
					"opcodes": "PUSH1 0x80 PUSH1 0x40 MSTORE CALLVALUE DUP1 ISZERO PUSH2 0xF JUMPI PUSH0 DUP1 REVERT JUMPDEST POP PUSH1 0x40 MLOAD PUSH2 0x9BB CODESIZE SUB DUP1 PUSH2 0x9BB DUP4 CODECOPY DUP2 DUP2 ADD PUSH1 0x40 MSTORE DUP2 ADD SWAP1 PUSH2 0x31 SWAP2 SWAP1 PUSH2 0x160 JUMP JUMPDEST CALLER PUSH0 DUP1 PUSH2 0x100 EXP DUP2 SLOAD DUP2 PUSH20 0xFFFFFFFFFFFFFFFFFFFFFFFFFFFFFFFFFFFFFFFF MUL NOT AND SWAP1 DUP4 PUSH20 0xFFFFFFFFFFFFFFFFFFFFFFFFFFFFFFFFFFFFFFFF AND MUL OR SWAP1 SSTORE POP DUP2 PUSH1 0x1 PUSH0 PUSH2 0x100 EXP DUP2 SLOAD DUP2 PUSH20 0xFFFFFFFFFFFFFFFFFFFFFFFFFFFFFFFFFFFFFFFF MUL NOT AND SWAP1 DUP4 PUSH20 0xFFFFFFFFFFFFFFFFFFFFFFFFFFFFFFFFFFFFFFFF AND MUL OR SWAP1 SSTORE POP DUP1 PUSH1 0x2 DUP2 SWAP1 SSTORE POP POP POP PUSH2 0x19E JUMP JUMPDEST PUSH0 DUP1 REVERT JUMPDEST PUSH0 PUSH20 0xFFFFFFFFFFFFFFFFFFFFFFFFFFFFFFFFFFFFFFFF DUP3 AND SWAP1 POP SWAP2 SWAP1 POP JUMP JUMPDEST PUSH0 PUSH2 0xEB DUP3 PUSH2 0xC2 JUMP JUMPDEST SWAP1 POP SWAP2 SWAP1 POP JUMP JUMPDEST PUSH0 PUSH2 0xFC DUP3 PUSH2 0xE1 JUMP JUMPDEST SWAP1 POP SWAP2 SWAP1 POP JUMP JUMPDEST PUSH2 0x10C DUP2 PUSH2 0xF2 JUMP JUMPDEST DUP2 EQ PUSH2 0x116 JUMPI PUSH0 DUP1 REVERT JUMPDEST POP JUMP JUMPDEST PUSH0 DUP2 MLOAD SWAP1 POP PUSH2 0x127 DUP2 PUSH2 0x103 JUMP JUMPDEST SWAP3 SWAP2 POP POP JUMP JUMPDEST PUSH0 DUP2 SWAP1 POP SWAP2 SWAP1 POP JUMP JUMPDEST PUSH2 0x13F DUP2 PUSH2 0x12D JUMP JUMPDEST DUP2 EQ PUSH2 0x149 JUMPI PUSH0 DUP1 REVERT JUMPDEST POP JUMP JUMPDEST PUSH0 DUP2 MLOAD SWAP1 POP PUSH2 0x15A DUP2 PUSH2 0x136 JUMP JUMPDEST SWAP3 SWAP2 POP POP JUMP JUMPDEST PUSH0 DUP1 PUSH1 0x40 DUP4 DUP6 SUB SLT ISZERO PUSH2 0x176 JUMPI PUSH2 0x175 PUSH2 0xBE JUMP JUMPDEST JUMPDEST PUSH0 PUSH2 0x183 DUP6 DUP3 DUP7 ADD PUSH2 0x119 JUMP JUMPDEST SWAP3 POP POP PUSH1 0x20 PUSH2 0x194 DUP6 DUP3 DUP7 ADD PUSH2 0x14C JUMP JUMPDEST SWAP2 POP POP SWAP3 POP SWAP3 SWAP1 POP JUMP JUMPDEST PUSH2 0x810 DUP1 PUSH2 0x1AB PUSH0 CODECOPY PUSH0 RETURN INVALID PUSH1 0x80 PUSH1 0x40 MSTORE PUSH1 0x4 CALLDATASIZE LT PUSH2 0x49 JUMPI PUSH0 CALLDATALOAD PUSH1 0xE0 SHR DUP1 PUSH4 0x3610724E EQ PUSH2 0x4D JUMPI DUP1 PUSH4 0x518AB2A8 EQ PUSH2 0x69 JUMPI DUP1 PUSH4 0x55A373D6 EQ PUSH2 0x93 JUMPI DUP1 PUSH4 0x7FF9B596 EQ PUSH2 0xBD JUMPI DUP1 PUSH4 0xF851A440 EQ PUSH2 0xE7 JUMPI JUMPDEST PUSH0 DUP1 REVERT JUMPDEST PUSH2 0x67 PUSH1 0x4 DUP1 CALLDATASIZE SUB DUP2 ADD SWAP1 PUSH2 0x62 SWAP2 SWAP1 PUSH2 0x3F1 JUMP JUMPDEST PUSH2 0x111 JUMP JUMPDEST STOP JUMPDEST CALLVALUE DUP1 ISZERO PUSH2 0x74 JUMPI PUSH0 DUP1 REVERT JUMPDEST POP PUSH2 0x7D PUSH2 0x331 JUMP JUMPDEST PUSH1 0x40 MLOAD PUSH2 0x8A SWAP2 SWAP1 PUSH2 0x42B JUMP JUMPDEST PUSH1 0x40 MLOAD DUP1 SWAP2 SUB SWAP1 RETURN JUMPDEST CALLVALUE DUP1 ISZERO PUSH2 0x9E JUMPI PUSH0 DUP1 REVERT JUMPDEST POP PUSH2 0xA7 PUSH2 0x337 JUMP JUMPDEST PUSH1 0x40 MLOAD PUSH2 0xB4 SWAP2 SWAP1 PUSH2 0x4BE JUMP JUMPDEST PUSH1 0x40 MLOAD DUP1 SWAP2 SUB SWAP1 RETURN JUMPDEST CALLVALUE DUP1 ISZERO PUSH2 0xC8 JUMPI PUSH0 DUP1 REVERT JUMPDEST POP PUSH2 0xD1 PUSH2 0x35C JUMP JUMPDEST PUSH1 0x40 MLOAD PUSH2 0xDE SWAP2 SWAP1 PUSH2 0x42B JUMP JUMPDEST PUSH1 0x40 MLOAD DUP1 SWAP2 SUB SWAP1 RETURN JUMPDEST CALLVALUE DUP1 ISZERO PUSH2 0xF2 JUMPI PUSH0 DUP1 REVERT JUMPDEST POP PUSH2 0xFB PUSH2 0x362 JUMP JUMPDEST PUSH1 0x40 MLOAD PUSH2 0x108 SWAP2 SWAP1 PUSH2 0x4F7 JUMP JUMPDEST PUSH1 0x40 MLOAD DUP1 SWAP2 SUB SWAP1 RETURN JUMPDEST PUSH2 0x11D DUP2 PUSH1 0x2 SLOAD PUSH2 0x385 JUMP JUMPDEST CALLVALUE EQ PUSH2 0x127 JUMPI PUSH0 DUP1 REVERT JUMPDEST DUP1 PUSH1 0x1 PUSH0 SWAP1 SLOAD SWAP1 PUSH2 0x100 EXP SWAP1 DIV PUSH20 0xFFFFFFFFFFFFFFFFFFFFFFFFFFFFFFFFFFFFFFFF AND PUSH20 0xFFFFFFFFFFFFFFFFFFFFFFFFFFFFFFFFFFFFFFFF AND PUSH4 0x70A08231 ADDRESS PUSH1 0x40 MLOAD DUP3 PUSH4 0xFFFFFFFF AND PUSH1 0xE0 SHL DUP2 MSTORE PUSH1 0x4 ADD PUSH2 0x182 SWAP2 SWAP1 PUSH2 0x4F7 JUMP JUMPDEST PUSH1 0x20 PUSH1 0x40 MLOAD DUP1 DUP4 SUB DUP2 DUP7 GAS STATICCALL ISZERO DUP1 ISZERO PUSH2 0x19D JUMPI RETURNDATASIZE PUSH0 DUP1 RETURNDATACOPY RETURNDATASIZE PUSH0 REVERT JUMPDEST POP POP POP POP PUSH1 0x40 MLOAD RETURNDATASIZE PUSH1 0x1F NOT PUSH1 0x1F DUP3 ADD AND DUP3 ADD DUP1 PUSH1 0x40 MSTORE POP DUP2 ADD SWAP1 PUSH2 0x1C1 SWAP2 SWAP1 PUSH2 0x524 JUMP JUMPDEST LT ISZERO PUSH2 0x202 JUMPI PUSH1 0x40 MLOAD PUSH32 0x8C379A000000000000000000000000000000000000000000000000000000000 DUP2 MSTORE PUSH1 0x4 ADD PUSH2 0x1F9 SWAP1 PUSH2 0x5CF JUMP JUMPDEST PUSH1 0x40 MLOAD DUP1 SWAP2 SUB SWAP1 REVERT JUMPDEST PUSH1 0x1 PUSH0 SWAP1 SLOAD SWAP1 PUSH2 0x100 EXP SWAP1 DIV PUSH20 0xFFFFFFFFFFFFFFFFFFFFFFFFFFFFFFFFFFFFFFFF AND PUSH20 0xFFFFFFFFFFFFFFFFFFFFFFFFFFFFFFFFFFFFFFFF AND PUSH4 0xA9059CBB CALLER DUP4 PUSH1 0x40 MLOAD DUP4 PUSH4 0xFFFFFFFF AND PUSH1 0xE0 SHL DUP2 MSTORE PUSH1 0x4 ADD PUSH2 0x25E SWAP3 SWAP2 SWAP1 PUSH2 0x5ED JUMP JUMPDEST PUSH1 0x20 PUSH1 0x40 MLOAD DUP1 DUP4 SUB DUP2 PUSH0 DUP8 GAS CALL ISZERO DUP1 ISZERO PUSH2 0x27A JUMPI RETURNDATASIZE PUSH0 DUP1 RETURNDATACOPY RETURNDATASIZE PUSH0 REVERT JUMPDEST POP POP POP POP PUSH1 0x40 MLOAD RETURNDATASIZE PUSH1 0x1F NOT PUSH1 0x1F DUP3 ADD AND DUP3 ADD DUP1 PUSH1 0x40 MSTORE POP DUP2 ADD SWAP1 PUSH2 0x29E SWAP2 SWAP1 PUSH2 0x649 JUMP JUMPDEST PUSH2 0x2DD JUMPI PUSH1 0x40 MLOAD PUSH32 0x8C379A000000000000000000000000000000000000000000000000000000000 DUP2 MSTORE PUSH1 0x4 ADD PUSH2 0x2D4 SWAP1 PUSH2 0x6BE JUMP JUMPDEST PUSH1 0x40 MLOAD DUP1 SWAP2 SUB SWAP1 REVERT JUMPDEST DUP1 PUSH1 0x3 PUSH0 DUP3 DUP3 SLOAD PUSH2 0x2EE SWAP2 SWAP1 PUSH2 0x709 JUMP JUMPDEST SWAP3 POP POP DUP2 SWAP1 SSTORE POP PUSH32 0x5E5E995CE3133561AFCEAA51A9A154D5DB228CD7525D34DF5185582C18D3DF09 CALLER DUP3 PUSH1 0x40 MLOAD PUSH2 0x326 SWAP3 SWAP2 SWAP1 PUSH2 0x5ED JUMP JUMPDEST PUSH1 0x40 MLOAD DUP1 SWAP2 SUB SWAP1 LOG1 POP JUMP JUMPDEST PUSH1 0x3 SLOAD DUP2 JUMP JUMPDEST PUSH1 0x1 PUSH0 SWAP1 SLOAD SWAP1 PUSH2 0x100 EXP SWAP1 DIV PUSH20 0xFFFFFFFFFFFFFFFFFFFFFFFFFFFFFFFFFFFFFFFF AND DUP2 JUMP JUMPDEST PUSH1 0x2 SLOAD DUP2 JUMP JUMPDEST PUSH0 DUP1 SLOAD SWAP1 PUSH2 0x100 EXP SWAP1 DIV PUSH20 0xFFFFFFFFFFFFFFFFFFFFFFFFFFFFFFFFFFFFFFFF AND DUP2 JUMP JUMPDEST PUSH0 DUP1 DUP3 EQ DUP1 PUSH2 0x3AC JUMPI POP DUP3 DUP3 DUP4 DUP6 PUSH2 0x39D SWAP2 SWAP1 PUSH2 0x73C JUMP JUMPDEST SWAP3 POP DUP3 PUSH2 0x3AA SWAP2 SWAP1 PUSH2 0x7AA JUMP JUMPDEST EQ JUMPDEST PUSH2 0x3B4 JUMPI PUSH0 DUP1 REVERT JUMPDEST SWAP3 SWAP2 POP POP JUMP JUMPDEST PUSH0 DUP1 REVERT JUMPDEST PUSH0 DUP2 SWAP1 POP SWAP2 SWAP1 POP JUMP JUMPDEST PUSH2 0x3D0 DUP2 PUSH2 0x3BE JUMP JUMPDEST DUP2 EQ PUSH2 0x3DA JUMPI PUSH0 DUP1 REVERT JUMPDEST POP JUMP JUMPDEST PUSH0 DUP2 CALLDATALOAD SWAP1 POP PUSH2 0x3EB DUP2 PUSH2 0x3C7 JUMP JUMPDEST SWAP3 SWAP2 POP POP JUMP JUMPDEST PUSH0 PUSH1 0x20 DUP3 DUP5 SUB SLT ISZERO PUSH2 0x406 JUMPI PUSH2 0x405 PUSH2 0x3BA JUMP JUMPDEST JUMPDEST PUSH0 PUSH2 0x413 DUP5 DUP3 DUP6 ADD PUSH2 0x3DD JUMP JUMPDEST SWAP2 POP POP SWAP3 SWAP2 POP POP JUMP JUMPDEST PUSH2 0x425 DUP2 PUSH2 0x3BE JUMP JUMPDEST DUP3 MSTORE POP POP JUMP JUMPDEST PUSH0 PUSH1 0x20 DUP3 ADD SWAP1 POP PUSH2 0x43E PUSH0 DUP4 ADD DUP5 PUSH2 0x41C JUMP JUMPDEST SWAP3 SWAP2 POP POP JUMP JUMPDEST PUSH0 PUSH20 0xFFFFFFFFFFFFFFFFFFFFFFFFFFFFFFFFFFFFFFFF DUP3 AND SWAP1 POP SWAP2 SWAP1 POP JUMP JUMPDEST PUSH0 DUP2 SWAP1 POP SWAP2 SWAP1 POP JUMP JUMPDEST PUSH0 PUSH2 0x486 PUSH2 0x481 PUSH2 0x47C DUP5 PUSH2 0x444 JUMP JUMPDEST PUSH2 0x463 JUMP JUMPDEST PUSH2 0x444 JUMP JUMPDEST SWAP1 POP SWAP2 SWAP1 POP JUMP JUMPDEST PUSH0 PUSH2 0x497 DUP3 PUSH2 0x46C JUMP JUMPDEST SWAP1 POP SWAP2 SWAP1 POP JUMP JUMPDEST PUSH0 PUSH2 0x4A8 DUP3 PUSH2 0x48D JUMP JUMPDEST SWAP1 POP SWAP2 SWAP1 POP JUMP JUMPDEST PUSH2 0x4B8 DUP2 PUSH2 0x49E JUMP JUMPDEST DUP3 MSTORE POP POP JUMP JUMPDEST PUSH0 PUSH1 0x20 DUP3 ADD SWAP1 POP PUSH2 0x4D1 PUSH0 DUP4 ADD DUP5 PUSH2 0x4AF JUMP JUMPDEST SWAP3 SWAP2 POP POP JUMP JUMPDEST PUSH0 PUSH2 0x4E1 DUP3 PUSH2 0x444 JUMP JUMPDEST SWAP1 POP SWAP2 SWAP1 POP JUMP JUMPDEST PUSH2 0x4F1 DUP2 PUSH2 0x4D7 JUMP JUMPDEST DUP3 MSTORE POP POP JUMP JUMPDEST PUSH0 PUSH1 0x20 DUP3 ADD SWAP1 POP PUSH2 0x50A PUSH0 DUP4 ADD DUP5 PUSH2 0x4E8 JUMP JUMPDEST SWAP3 SWAP2 POP POP JUMP JUMPDEST PUSH0 DUP2 MLOAD SWAP1 POP PUSH2 0x51E DUP2 PUSH2 0x3C7 JUMP JUMPDEST SWAP3 SWAP2 POP POP JUMP JUMPDEST PUSH0 PUSH1 0x20 DUP3 DUP5 SUB SLT ISZERO PUSH2 0x539 JUMPI PUSH2 0x538 PUSH2 0x3BA JUMP JUMPDEST JUMPDEST PUSH0 PUSH2 0x546 DUP5 DUP3 DUP6 ADD PUSH2 0x510 JUMP JUMPDEST SWAP2 POP POP SWAP3 SWAP2 POP POP JUMP JUMPDEST PUSH0 DUP3 DUP3 MSTORE PUSH1 0x20 DUP3 ADD SWAP1 POP SWAP3 SWAP2 POP POP JUMP JUMPDEST PUSH32 0x4E6F7420656E6F75676820746F6B656E7320696E2074686520636F6E74726163 PUSH0 DUP3 ADD MSTORE PUSH32 0x7400000000000000000000000000000000000000000000000000000000000000 PUSH1 0x20 DUP3 ADD MSTORE POP JUMP JUMPDEST PUSH0 PUSH2 0x5B9 PUSH1 0x21 DUP4 PUSH2 0x54F JUMP JUMPDEST SWAP2 POP PUSH2 0x5C4 DUP3 PUSH2 0x55F JUMP JUMPDEST PUSH1 0x40 DUP3 ADD SWAP1 POP SWAP2 SWAP1 POP JUMP JUMPDEST PUSH0 PUSH1 0x20 DUP3 ADD SWAP1 POP DUP2 DUP2 SUB PUSH0 DUP4 ADD MSTORE PUSH2 0x5E6 DUP2 PUSH2 0x5AD JUMP JUMPDEST SWAP1 POP SWAP2 SWAP1 POP JUMP JUMPDEST PUSH0 PUSH1 0x40 DUP3 ADD SWAP1 POP PUSH2 0x600 PUSH0 DUP4 ADD DUP6 PUSH2 0x4E8 JUMP JUMPDEST PUSH2 0x60D PUSH1 0x20 DUP4 ADD DUP5 PUSH2 0x41C JUMP JUMPDEST SWAP4 SWAP3 POP POP POP JUMP JUMPDEST PUSH0 DUP2 ISZERO ISZERO SWAP1 POP SWAP2 SWAP1 POP JUMP JUMPDEST PUSH2 0x628 DUP2 PUSH2 0x614 JUMP JUMPDEST DUP2 EQ PUSH2 0x632 JUMPI PUSH0 DUP1 REVERT JUMPDEST POP JUMP JUMPDEST PUSH0 DUP2 MLOAD SWAP1 POP PUSH2 0x643 DUP2 PUSH2 0x61F JUMP JUMPDEST SWAP3 SWAP2 POP POP JUMP JUMPDEST PUSH0 PUSH1 0x20 DUP3 DUP5 SUB SLT ISZERO PUSH2 0x65E JUMPI PUSH2 0x65D PUSH2 0x3BA JUMP JUMPDEST JUMPDEST PUSH0 PUSH2 0x66B DUP5 DUP3 DUP6 ADD PUSH2 0x635 JUMP JUMPDEST SWAP2 POP POP SWAP3 SWAP2 POP POP JUMP JUMPDEST PUSH32 0x546F6B656E207472616E73666572206661696C65640000000000000000000000 PUSH0 DUP3 ADD MSTORE POP JUMP JUMPDEST PUSH0 PUSH2 0x6A8 PUSH1 0x15 DUP4 PUSH2 0x54F JUMP JUMPDEST SWAP2 POP PUSH2 0x6B3 DUP3 PUSH2 0x674 JUMP JUMPDEST PUSH1 0x20 DUP3 ADD SWAP1 POP SWAP2 SWAP1 POP JUMP JUMPDEST PUSH0 PUSH1 0x20 DUP3 ADD SWAP1 POP DUP2 DUP2 SUB PUSH0 DUP4 ADD MSTORE PUSH2 0x6D5 DUP2 PUSH2 0x69C JUMP JUMPDEST SWAP1 POP SWAP2 SWAP1 POP JUMP JUMPDEST PUSH32 0x4E487B7100000000000000000000000000000000000000000000000000000000 PUSH0 MSTORE PUSH1 0x11 PUSH1 0x4 MSTORE PUSH1 0x24 PUSH0 REVERT JUMPDEST PUSH0 PUSH2 0x713 DUP3 PUSH2 0x3BE JUMP JUMPDEST SWAP2 POP PUSH2 0x71E DUP4 PUSH2 0x3BE JUMP JUMPDEST SWAP3 POP DUP3 DUP3 ADD SWAP1 POP DUP1 DUP3 GT ISZERO PUSH2 0x736 JUMPI PUSH2 0x735 PUSH2 0x6DC JUMP JUMPDEST JUMPDEST SWAP3 SWAP2 POP POP JUMP JUMPDEST PUSH0 PUSH2 0x746 DUP3 PUSH2 0x3BE JUMP JUMPDEST SWAP2 POP PUSH2 0x751 DUP4 PUSH2 0x3BE JUMP JUMPDEST SWAP3 POP DUP3 DUP3 MUL PUSH2 0x75F DUP2 PUSH2 0x3BE JUMP JUMPDEST SWAP2 POP DUP3 DUP3 DIV DUP5 EQ DUP4 ISZERO OR PUSH2 0x776 JUMPI PUSH2 0x775 PUSH2 0x6DC JUMP JUMPDEST JUMPDEST POP SWAP3 SWAP2 POP POP JUMP JUMPDEST PUSH32 0x4E487B7100000000000000000000000000000000000000000000000000000000 PUSH0 MSTORE PUSH1 0x12 PUSH1 0x4 MSTORE PUSH1 0x24 PUSH0 REVERT JUMPDEST PUSH0 PUSH2 0x7B4 DUP3 PUSH2 0x3BE JUMP JUMPDEST SWAP2 POP PUSH2 0x7BF DUP4 PUSH2 0x3BE JUMP JUMPDEST SWAP3 POP DUP3 PUSH2 0x7CF JUMPI PUSH2 0x7CE PUSH2 0x77D JUMP JUMPDEST JUMPDEST DUP3 DUP3 DIV SWAP1 POP SWAP3 SWAP2 POP POP JUMP INVALID LOG2 PUSH5 0x6970667358 0x22 SLT KECCAK256 0xCE STOP PUSH4 0x6153CEEB 0xD2 SWAP3 EXTCODECOPY DUP3 SIGNEXTEND 0xB8 0xBD PUSH4 0x2FEF317E DUP8 0xC9 LT 0xDC PUSH12 0xE13439BDB2DC0C0564736F6C PUSH4 0x43000816 STOP CALLER "
				},
				"gasEstimates": {
					"creation": {
						"codeDepositCost": "412800",
						"executionCost": "infinite",
						"totalCost": "infinite"
					},
					"external": {
						"admin()": "2571",
						"buyTokens(uint256)": "infinite",
						"tokenContract()": "infinite",
						"tokenPrice()": "2469",
						"tokensSold()": "2425"
					},
					"internal": {
						"multiply(uint256,uint256)": "infinite"
					}
				},
				"methodIdentifiers": {
					"admin()": "f851a440",
					"buyTokens(uint256)": "3610724e",
					"tokenContract()": "55a373d6",
					"tokenPrice()": "7ff9b596",
					"tokensSold()": "518ab2a8"
				}
			},
			"storageLayout": {
				"storage": [
					{
						"astId": 191,
						"contract": "PH/contracts/PPHTokenSale.sol:PPHTokenSale",
						"label": "admin",
						"offset": 0,
						"slot": "0",
						"type": "t_address"
					},
					{
						"astId": 194,
						"contract": "PH/contracts/PPHTokenSale.sol:PPHTokenSale",
						"label": "tokenContract",
						"offset": 0,
						"slot": "1",
						"type": "t_contract(PPHToken)186"
					},
					{
						"astId": 196,
						"contract": "PH/contracts/PPHTokenSale.sol:PPHTokenSale",
						"label": "tokenPrice",
						"offset": 0,
						"slot": "2",
						"type": "t_uint256"
					},
					{
						"astId": 198,
						"contract": "PH/contracts/PPHTokenSale.sol:PPHTokenSale",
						"label": "tokensSold",
						"offset": 0,
						"slot": "3",
						"type": "t_uint256"
					}
				],
				"types": {
					"t_address": {
						"encoding": "inplace",
						"label": "address",
						"numberOfBytes": "20"
					},
					"t_contract(PPHToken)186": {
						"encoding": "inplace",
						"label": "contract PPHToken",
						"numberOfBytes": "20"
					},
					"t_uint256": {
						"encoding": "inplace",
						"label": "uint256",
						"numberOfBytes": "32"
					}
				}
			},
			"userdoc": {
				"kind": "user",
				"methods": {},
				"version": 1
			}
		}
	}
}