{
	"PH/contracts/Payout.sol": {
		"Payout": {
			"abi": [
				{
					"inputs": [
						{
							"internalType": "uint256",
							"name": "_percentage",
							"type": "uint256"
						},
						{
							"internalType": "address",
							"name": "_address",
							"type": "address"
						}
					],
					"name": "addRecipient",
					"outputs": [
						{
							"internalType": "bool",
							"name": "success",
							"type": "bool"
						}
					],
					"stateMutability": "nonpayable",
					"type": "function"
				},
				{
					"inputs": [],
					"name": "fundContract",
					"outputs": [],
					"stateMutability": "payable",
					"type": "function"
				},
				{
					"inputs": [],
					"name": "payRecipients",
					"outputs": [
						{
							"internalType": "bool",
							"name": "success",
							"type": "bool"
						}
					],
					"stateMutability": "payable",
					"type": "function"
				},
				{
					"inputs": [
						{
							"internalType": "uint256",
							"name": "",
							"type": "uint256"
						}
					],
					"name": "recipients",
					"outputs": [
						{
							"internalType": "address",
							"name": "",
							"type": "address"
						}
					],
					"stateMutability": "view",
					"type": "function"
				},
				{
					"inputs": [
						{
							"internalType": "address",
							"name": "",
							"type": "address"
						}
					],
					"name": "shares",
					"outputs": [
						{
							"internalType": "uint256",
							"name": "",
							"type": "uint256"
						}
					],
					"stateMutability": "view",
					"type": "function"
				}
			],
			"devdoc": {
				"kind": "dev",
				"methods": {},
				"version": 1
			},
			"evm": {
				"assembly": "    /* \"PH/contracts/Payout.sol\":988:3524  contract Payout {... */\n  mstore(0x40, 0x80)\n    /* \"PH/contracts/Payout.sol\":1093:1094  0 */\n  0x00\n    /* \"PH/contracts/Payout.sol\":1059:1094  uint256 internal amountForCalc1 = 0 */\n  dup1\n  sstore\n    /* \"PH/contracts/Payout.sol\":1171:1172  0 */\n  0x00\n    /* \"PH/contracts/Payout.sol\":1137:1172  uint256 internal _percentageSum = 0 */\n  0x02\n  sstore\n    /* \"PH/contracts/Payout.sol\":1205:1206  0 */\n  0x00\n    /* \"PH/contracts/Payout.sol\":1178:1206  uint256 _totalRecipients = 0 */\n  0x03\n  sstore\n    /* \"PH/contracts/Payout.sol\":988:3524  contract Payout {... */\n  callvalue\n  dup1\n  iszero\n  tag_1\n  jumpi\n  0x00\n  dup1\n  revert\ntag_1:\n  pop\n  dataSize(sub_0)\n  dup1\n  dataOffset(sub_0)\n  0x00\n  codecopy\n  0x00\n  return\nstop\n\nsub_0: assembly {\n        /* \"PH/contracts/Payout.sol\":988:3524  contract Payout {... */\n      mstore(0x40, 0x80)\n      jumpi(tag_1, lt(calldatasize, 0x04))\n      shr(0xe0, calldataload(0x00))\n      dup1\n      0x8ab03929\n      eq\n      tag_2\n      jumpi\n      dup1\n      0xbd097e21\n      eq\n      tag_3\n      jumpi\n      dup1\n      0xc633791f\n      eq\n      tag_4\n      jumpi\n      dup1\n      0xce7c2ac2\n      eq\n      tag_5\n      jumpi\n      dup1\n      0xd1bc76a1\n      eq\n      tag_6\n      jumpi\n    tag_1:\n      0x00\n      dup1\n      revert\n        /* \"PH/contracts/Payout.sol\":1630:2346  function addRecipient(uint256 _percentage, address _address)... */\n    tag_2:\n      callvalue\n      dup1\n      iszero\n      tag_7\n      jumpi\n      0x00\n      dup1\n      revert\n    tag_7:\n      pop\n      tag_8\n      0x04\n      dup1\n      calldatasize\n      sub\n      dup2\n      add\n      swap1\n      tag_9\n      swap2\n      swap1\n      tag_10\n      jump\t// in\n    tag_9:\n      tag_11\n      jump\t// in\n    tag_8:\n      mload(0x40)\n      tag_12\n      swap2\n      swap1\n      tag_13\n      jump\t// in\n    tag_12:\n      mload(0x40)\n      dup1\n      swap2\n      sub\n      swap1\n      return\n        /* \"PH/contracts/Payout.sol\":1450:1624  function fundContract() public payable {... */\n    tag_3:\n      tag_14\n      tag_15\n      jump\t// in\n    tag_14:\n      stop\n        /* \"PH/contracts/Payout.sol\":2352:3522  function payRecipients() public payable returns (bool success) {... */\n    tag_4:\n      tag_16\n      tag_17\n      jump\t// in\n    tag_16:\n      mload(0x40)\n      tag_18\n      swap2\n      swap1\n      tag_13\n      jump\t// in\n    tag_18:\n      mload(0x40)\n      dup1\n      swap2\n      sub\n      swap1\n      return\n        /* \"PH/contracts/Payout.sol\":1315:1356  mapping(address => uint256) public shares */\n    tag_5:\n      callvalue\n      dup1\n      iszero\n      tag_19\n      jumpi\n      0x00\n      dup1\n      revert\n    tag_19:\n      pop\n      tag_20\n      0x04\n      dup1\n      calldatasize\n      sub\n      dup2\n      add\n      swap1\n      tag_21\n      swap2\n      swap1\n      tag_22\n      jump\t// in\n    tag_21:\n      tag_23\n      jump\t// in\n    tag_20:\n      mload(0x40)\n      tag_24\n      swap2\n      swap1\n      tag_25\n      jump\t// in\n    tag_24:\n      mload(0x40)\n      dup1\n      swap2\n      sub\n      swap1\n      return\n        /* \"PH/contracts/Payout.sol\":1264:1309  mapping(uint256 => address) public recipients */\n    tag_6:\n      callvalue\n      dup1\n      iszero\n      tag_26\n      jumpi\n      0x00\n      dup1\n      revert\n    tag_26:\n      pop\n      tag_27\n      0x04\n      dup1\n      calldatasize\n      sub\n      dup2\n      add\n      swap1\n      tag_28\n      swap2\n      swap1\n      tag_29\n      jump\t// in\n    tag_28:\n      tag_30\n      jump\t// in\n    tag_27:\n      mload(0x40)\n      tag_31\n      swap2\n      swap1\n      tag_32\n      jump\t// in\n    tag_31:\n      mload(0x40)\n      dup1\n      swap2\n      sub\n      swap1\n      return\n        /* \"PH/contracts/Payout.sol\":1630:2346  function addRecipient(uint256 _percentage, address _address)... */\n    tag_11:\n        /* \"PH/contracts/Payout.sol\":1723:1735  bool success */\n      0x00\n        /* \"PH/contracts/Payout.sol\":1881:1882  0 */\n      dup1\n        /* \"PH/contracts/Payout.sol\":1867:1878  _percentage */\n      dup4\n        /* \"PH/contracts/Payout.sol\":1867:1882  _percentage > 0 */\n      gt\n        /* \"PH/contracts/Payout.sol\":1867:1920  _percentage > 0 &&... */\n      dup1\n      iszero\n      tag_34\n      jumpi\n      pop\n        /* \"PH/contracts/Payout.sol\":1917:1920  100 */\n      0x64\n        /* \"PH/contracts/Payout.sol\":1902:1913  _percentage */\n      dup4\n        /* \"PH/contracts/Payout.sol\":1902:1920  _percentage <= 100 */\n      gt\n      iszero\n        /* \"PH/contracts/Payout.sol\":1867:1920  _percentage > 0 &&... */\n    tag_34:\n        /* \"PH/contracts/Payout.sol\":1867:1977  _percentage > 0 &&... */\n      dup1\n      iszero\n      tag_35\n      jumpi\n      pop\n        /* \"PH/contracts/Payout.sol\":1974:1977  100 */\n      0x64\n        /* \"PH/contracts/Payout.sol\":1958:1969  _percentage */\n      dup4\n        /* \"PH/contracts/Payout.sol\":1941:1955  _percentageSum */\n      sload(0x02)\n        /* \"PH/contracts/Payout.sol\":1941:1969  _percentageSum + _percentage */\n      tag_36\n      swap2\n      swap1\n      tag_37\n      jump\t// in\n    tag_36:\n        /* \"PH/contracts/Payout.sol\":1940:1977  (_percentageSum + _percentage) <= 100 */\n      gt\n      iszero\n        /* \"PH/contracts/Payout.sol\":1867:1977  _percentage > 0 &&... */\n    tag_35:\n        /* \"PH/contracts/Payout.sol\":1846:2028  require(... */\n      tag_38\n      jumpi\n      mload(0x40)\n      0x08c379a000000000000000000000000000000000000000000000000000000000\n      dup2\n      mstore\n      0x04\n      add\n      tag_39\n      swap1\n      tag_40\n      jump\t// in\n    tag_39:\n      mload(0x40)\n      dup1\n      swap2\n      sub\n      swap1\n      revert\n    tag_38:\n        /* \"PH/contracts/Payout.sol\":2133:2141  _address */\n      dup2\n        /* \"PH/contracts/Payout.sol\":2102:2112  recipients */\n      0x04\n        /* \"PH/contracts/Payout.sol\":2102:2130  recipients[_totalRecipients] */\n      0x00\n        /* \"PH/contracts/Payout.sol\":2113:2129  _totalRecipients */\n      sload(0x03)\n        /* \"PH/contracts/Payout.sol\":2102:2130  recipients[_totalRecipients] */\n      dup2\n      mstore\n      0x20\n      add\n      swap1\n      dup2\n      mstore\n      0x20\n      add\n      0x00\n      keccak256\n      0x00\n        /* \"PH/contracts/Payout.sol\":2102:2141  recipients[_totalRecipients] = _address */\n      0x0100\n      exp\n      dup2\n      sload\n      dup2\n      0xffffffffffffffffffffffffffffffffffffffff\n      mul\n      not\n      and\n      swap1\n      dup4\n      0xffffffffffffffffffffffffffffffffffffffff\n      and\n      mul\n      or\n      swap1\n      sstore\n      pop\n        /* \"PH/contracts/Payout.sol\":2170:2181  _percentage */\n      dup3\n        /* \"PH/contracts/Payout.sol\":2151:2157  shares */\n      0x05\n        /* \"PH/contracts/Payout.sol\":2151:2167  shares[_address] */\n      0x00\n        /* \"PH/contracts/Payout.sol\":2158:2166  _address */\n      dup5\n        /* \"PH/contracts/Payout.sol\":2151:2167  shares[_address] */\n      0xffffffffffffffffffffffffffffffffffffffff\n      and\n      0xffffffffffffffffffffffffffffffffffffffff\n      and\n      dup2\n      mstore\n      0x20\n      add\n      swap1\n      dup2\n      mstore\n      0x20\n      add\n      0x00\n      keccak256\n        /* \"PH/contracts/Payout.sol\":2151:2181  shares[_address] = _percentage */\n      dup2\n      swap1\n      sstore\n      pop\n        /* \"PH/contracts/Payout.sol\":2191:2207  _totalRecipients */\n      0x03\n      0x00\n        /* \"PH/contracts/Payout.sol\":2191:2209  _totalRecipients++ */\n      dup2\n      sload\n      dup1\n      swap3\n      swap2\n      swap1\n      tag_41\n      swap1\n      tag_42\n      jump\t// in\n    tag_41:\n      swap2\n      swap1\n      pop\n      sstore\n      pop\n        /* \"PH/contracts/Payout.sol\":2286:2317  _percentageSum.add(_percentage) */\n      tag_43\n        /* \"PH/contracts/Payout.sol\":2305:2316  _percentage */\n      dup4\n        /* \"PH/contracts/Payout.sol\":2286:2300  _percentageSum */\n      sload(0x02)\n        /* \"PH/contracts/Payout.sol\":2286:2304  _percentageSum.add */\n      tag_44\n      swap1\n        /* \"PH/contracts/Payout.sol\":2286:2317  _percentageSum.add(_percentage) */\n      swap2\n      swap1\n      0xffffffff\n      and\n      jump\t// in\n    tag_43:\n        /* \"PH/contracts/Payout.sol\":2269:2283  _percentageSum */\n      0x02\n        /* \"PH/contracts/Payout.sol\":2269:2317  _percentageSum = _percentageSum.add(_percentage) */\n      dup2\n      swap1\n      sstore\n      pop\n        /* \"PH/contracts/Payout.sol\":2335:2339  true */\n      0x01\n        /* \"PH/contracts/Payout.sol\":2328:2339  return true */\n      swap1\n      pop\n        /* \"PH/contracts/Payout.sol\":1630:2346  function addRecipient(uint256 _percentage, address _address)... */\n      swap3\n      swap2\n      pop\n      pop\n      jump\t// out\n        /* \"PH/contracts/Payout.sol\":1450:1624  function fundContract() public payable {... */\n    tag_15:\n        /* \"PH/contracts/Payout.sol\":1519:1520  0 */\n      0x00\n        /* \"PH/contracts/Payout.sol\":1507:1516  msg.value */\n      callvalue\n        /* \"PH/contracts/Payout.sol\":1507:1520  msg.value > 0 */\n      gt\n        /* \"PH/contracts/Payout.sol\":1499:1561  require(msg.value > 0, \"Royalty amount must be higher than 0\") */\n      tag_46\n      jumpi\n      mload(0x40)\n      0x08c379a000000000000000000000000000000000000000000000000000000000\n      dup2\n      mstore\n      0x04\n      add\n      tag_47\n      swap1\n      tag_48\n      jump\t// in\n    tag_47:\n      mload(0x40)\n      dup1\n      swap2\n      sub\n      swap1\n      revert\n    tag_46:\n        /* \"PH/contracts/Payout.sol\":1588:1617  amountForCalc1.add(msg.value) */\n      tag_49\n        /* \"PH/contracts/Payout.sol\":1607:1616  msg.value */\n      callvalue\n        /* \"PH/contracts/Payout.sol\":1588:1602  amountForCalc1 */\n      sload(0x00)\n        /* \"PH/contracts/Payout.sol\":1588:1606  amountForCalc1.add */\n      tag_44\n      swap1\n        /* \"PH/contracts/Payout.sol\":1588:1617  amountForCalc1.add(msg.value) */\n      swap2\n      swap1\n      0xffffffff\n      and\n      jump\t// in\n    tag_49:\n        /* \"PH/contracts/Payout.sol\":1571:1585  amountForCalc1 */\n      0x00\n        /* \"PH/contracts/Payout.sol\":1571:1617  amountForCalc1 = amountForCalc1.add(msg.value) */\n      dup2\n      swap1\n      sstore\n      pop\n        /* \"PH/contracts/Payout.sol\":1450:1624  function fundContract() public payable {... */\n      jump\t// out\n        /* \"PH/contracts/Payout.sol\":2352:3522  function payRecipients() public payable returns (bool success) {... */\n    tag_17:\n        /* \"PH/contracts/Payout.sol\":2401:2413  bool success */\n      0x00\n        /* \"PH/contracts/Payout.sol\":2516:2517  0 */\n      dup1\n        /* \"PH/contracts/Payout.sol\":2499:2513  amountForCalc1 */\n      sload(0x00)\n        /* \"PH/contracts/Payout.sol\":2499:2517  amountForCalc1 > 0 */\n      gt\n        /* \"PH/contracts/Payout.sol\":2491:2561  require(amountForCalc1 > 0, \"No funds have been sent to the contract\") */\n      tag_51\n      jumpi\n      mload(0x40)\n      0x08c379a000000000000000000000000000000000000000000000000000000000\n      dup2\n      mstore\n      0x04\n      add\n      tag_52\n      swap1\n      tag_53\n      jump\t// in\n    tag_52:\n      mload(0x40)\n      dup1\n      swap2\n      sub\n      swap1\n      revert\n    tag_51:\n        /* \"PH/contracts/Payout.sol\":2716:2719  100 */\n      0x64\n        /* \"PH/contracts/Payout.sol\":2698:2712  _percentageSum */\n      sload(0x02)\n        /* \"PH/contracts/Payout.sol\":2698:2719  _percentageSum != 100 */\n      eq\n        /* \"PH/contracts/Payout.sol\":2694:3516  if (_percentageSum != 100) {... */\n      tag_54\n      jumpi\n        /* \"PH/contracts/Payout.sol\":2742:2747  false */\n      0x00\n        /* \"PH/contracts/Payout.sol\":2735:2747  return false */\n      swap1\n      pop\n      jump(tag_50)\n        /* \"PH/contracts/Payout.sol\":2694:3516  if (_percentageSum != 100) {... */\n    tag_54:\n        /* \"PH/contracts/Payout.sol\":2827:2828  0 */\n      0x00\n        /* \"PH/contracts/Payout.sol\":2810:2824  _percentageSum */\n      0x02\n        /* \"PH/contracts/Payout.sol\":2810:2828  _percentageSum = 0 */\n      dup2\n      swap1\n      sstore\n      pop\n        /* \"PH/contracts/Payout.sol\":2914:2937  amountForCalc1.div(100) */\n      tag_56\n        /* \"PH/contracts/Payout.sol\":2933:2936  100 */\n      0x64\n        /* \"PH/contracts/Payout.sol\":2914:2928  amountForCalc1 */\n      sload(0x00)\n        /* \"PH/contracts/Payout.sol\":2914:2932  amountForCalc1.div */\n      tag_57\n      swap1\n        /* \"PH/contracts/Payout.sol\":2914:2937  amountForCalc1.div(100) */\n      swap2\n      swap1\n      0xffffffff\n      and\n      jump\t// in\n    tag_56:\n        /* \"PH/contracts/Payout.sol\":2897:2911  amountForCalc2 */\n      0x01\n        /* \"PH/contracts/Payout.sol\":2897:2937  amountForCalc2 = amountForCalc1.div(100) */\n      dup2\n      swap1\n      sstore\n      pop\n        /* \"PH/contracts/Payout.sol\":3000:3001  0 */\n      0x00\n        /* \"PH/contracts/Payout.sol\":2983:2997  amountForCalc1 */\n      dup1\n        /* \"PH/contracts/Payout.sol\":2983:3001  amountForCalc1 = 0 */\n      dup2\n      swap1\n      sstore\n      pop\n        /* \"PH/contracts/Payout.sol\":3139:3148  uint256 i */\n      0x00\n        /* \"PH/contracts/Payout.sol\":3134:3481  for (uint256 i = 0; i < _totalRecipients; i++) {... */\n    tag_58:\n        /* \"PH/contracts/Payout.sol\":3158:3174  _totalRecipients */\n      sload(0x03)\n        /* \"PH/contracts/Payout.sol\":3154:3155  i */\n      dup2\n        /* \"PH/contracts/Payout.sol\":3154:3174  i < _totalRecipients */\n      lt\n        /* \"PH/contracts/Payout.sol\":3134:3481  for (uint256 i = 0; i < _totalRecipients; i++) {... */\n      iszero\n      tag_59\n      jumpi\n        /* \"PH/contracts/Payout.sol\":3203:3228  address payable recipient */\n      0x00\n        /* \"PH/contracts/Payout.sol\":3239:3249  recipients */\n      0x04\n        /* \"PH/contracts/Payout.sol\":3239:3252  recipients[i] */\n      0x00\n        /* \"PH/contracts/Payout.sol\":3250:3251  i */\n      dup4\n        /* \"PH/contracts/Payout.sol\":3239:3252  recipients[i] */\n      dup2\n      mstore\n      0x20\n      add\n      swap1\n      dup2\n      mstore\n      0x20\n      add\n      0x00\n      keccak256\n      0x00\n      swap1\n      sload\n      swap1\n      0x0100\n      exp\n      swap1\n      div\n      0xffffffffffffffffffffffffffffffffffffffff\n      and\n        /* \"PH/contracts/Payout.sol\":3203:3253  address payable recipient = payable(recipients[i]) */\n      swap1\n      pop\n        /* \"PH/contracts/Payout.sol\":3275:3284  recipient */\n      dup1\n        /* \"PH/contracts/Payout.sol\":3275:3293  recipient.transfer */\n      0xffffffffffffffffffffffffffffffffffffffff\n      and\n        /* \"PH/contracts/Payout.sol\":3275:3332  recipient.transfer(amountForCalc2.mul(shares[recipient])) */\n      0x08fc\n        /* \"PH/contracts/Payout.sol\":3294:3331  amountForCalc2.mul(shares[recipient]) */\n      tag_61\n        /* \"PH/contracts/Payout.sol\":3313:3319  shares */\n      0x05\n        /* \"PH/contracts/Payout.sol\":3313:3330  shares[recipient] */\n      0x00\n        /* \"PH/contracts/Payout.sol\":3320:3329  recipient */\n      dup6\n        /* \"PH/contracts/Payout.sol\":3313:3330  shares[recipient] */\n      0xffffffffffffffffffffffffffffffffffffffff\n      and\n      0xffffffffffffffffffffffffffffffffffffffff\n      and\n      dup2\n      mstore\n      0x20\n      add\n      swap1\n      dup2\n      mstore\n      0x20\n      add\n      0x00\n      keccak256\n      sload\n        /* \"PH/contracts/Payout.sol\":3294:3308  amountForCalc2 */\n      sload(0x01)\n        /* \"PH/contracts/Payout.sol\":3294:3312  amountForCalc2.mul */\n      tag_62\n      swap1\n        /* \"PH/contracts/Payout.sol\":3294:3331  amountForCalc2.mul(shares[recipient]) */\n      swap2\n      swap1\n      0xffffffff\n      and\n      jump\t// in\n    tag_61:\n        /* \"PH/contracts/Payout.sol\":3275:3332  recipient.transfer(amountForCalc2.mul(shares[recipient])) */\n      swap1\n      dup2\n      iszero\n      mul\n      swap1\n      mload(0x40)\n      0x00\n      mload(0x40)\n      dup1\n      dup4\n      sub\n      dup2\n      dup6\n      dup9\n      dup9\n      call\n      swap4\n      pop\n      pop\n      pop\n      pop\n      iszero\n      dup1\n      iszero\n      tag_64\n      jumpi\n      returndatasize\n      0x00\n      dup1\n      returndatacopy\n      revert(0x00, returndatasize)\n    tag_64:\n      pop\n        /* \"PH/contracts/Payout.sol\":3403:3413  recipients */\n      0x04\n        /* \"PH/contracts/Payout.sol\":3403:3416  recipients[i] */\n      0x00\n        /* \"PH/contracts/Payout.sol\":3414:3415  i */\n      dup4\n        /* \"PH/contracts/Payout.sol\":3403:3416  recipients[i] */\n      dup2\n      mstore\n      0x20\n      add\n      swap1\n      dup2\n      mstore\n      0x20\n      add\n      0x00\n      keccak256\n      0x00\n        /* \"PH/contracts/Payout.sol\":3396:3416  delete recipients[i] */\n      0x0100\n      exp\n      dup2\n      sload\n      swap1\n      0xffffffffffffffffffffffffffffffffffffffff\n      mul\n      not\n      and\n      swap1\n      sstore\n        /* \"PH/contracts/Payout.sol\":3445:3451  shares */\n      0x05\n        /* \"PH/contracts/Payout.sol\":3445:3462  shares[recipient] */\n      0x00\n        /* \"PH/contracts/Payout.sol\":3452:3461  recipient */\n      dup3\n        /* \"PH/contracts/Payout.sol\":3445:3462  shares[recipient] */\n      0xffffffffffffffffffffffffffffffffffffffff\n      and\n      0xffffffffffffffffffffffffffffffffffffffff\n      and\n      dup2\n      mstore\n      0x20\n      add\n      swap1\n      dup2\n      mstore\n      0x20\n      add\n      0x00\n      keccak256\n        /* \"PH/contracts/Payout.sol\":3438:3462  delete shares[recipient] */\n      0x00\n      swap1\n      sstore\n        /* \"PH/contracts/Payout.sol\":3181:3481  {... */\n      pop\n        /* \"PH/contracts/Payout.sol\":3176:3179  i++ */\n      dup1\n      dup1\n      0x01\n      add\n      swap2\n      pop\n      pop\n        /* \"PH/contracts/Payout.sol\":3134:3481  for (uint256 i = 0; i < _totalRecipients; i++) {... */\n      jump(tag_58)\n    tag_59:\n      pop\n        /* \"PH/contracts/Payout.sol\":3501:3505  true */\n      0x01\n        /* \"PH/contracts/Payout.sol\":3494:3505  return true */\n      swap1\n      pop\n        /* \"PH/contracts/Payout.sol\":2352:3522  function payRecipients() public payable returns (bool success) {... */\n    tag_50:\n      swap1\n      jump\t// out\n        /* \"PH/contracts/Payout.sol\":1315:1356  mapping(address => uint256) public shares */\n    tag_23:\n      mstore(0x20, 0x05)\n      dup1\n      0x00\n      mstore\n      keccak256(0x00, 0x40)\n      0x00\n      swap2\n      pop\n      swap1\n      pop\n      sload\n      dup2\n      jump\t// out\n        /* \"PH/contracts/Payout.sol\":1264:1309  mapping(uint256 => address) public recipients */\n    tag_30:\n      mstore(0x20, 0x04)\n      dup1\n      0x00\n      mstore\n      keccak256(0x00, 0x40)\n      0x00\n      swap2\n      pop\n      sload\n      swap1\n      0x0100\n      exp\n      swap1\n      div\n      0xffffffffffffffffffffffffffffffffffffffff\n      and\n      dup2\n      jump\t// out\n        /* \"PH/contracts/Payout.sol\":841:984  function add(uint256 a, uint256 b) internal pure returns (uint256) {... */\n    tag_44:\n        /* \"PH/contracts/Payout.sol\":899:906  uint256 */\n      0x00\n        /* \"PH/contracts/Payout.sol\":918:927  uint256 c */\n      dup1\n        /* \"PH/contracts/Payout.sol\":934:935  b */\n      dup3\n        /* \"PH/contracts/Payout.sol\":930:931  a */\n      dup5\n        /* \"PH/contracts/Payout.sol\":930:935  a + b */\n      tag_66\n      swap2\n      swap1\n      tag_37\n      jump\t// in\n    tag_66:\n        /* \"PH/contracts/Payout.sol\":918:935  uint256 c = a + b */\n      swap1\n      pop\n        /* \"PH/contracts/Payout.sol\":957:958  a */\n      dup4\n        /* \"PH/contracts/Payout.sol\":952:953  c */\n      dup2\n        /* \"PH/contracts/Payout.sol\":952:958  c >= a */\n      lt\n      iszero\n        /* \"PH/contracts/Payout.sol\":945:959  assert(c >= a) */\n      tag_67\n      jumpi\n      tag_68\n      tag_69\n      jump\t// in\n    tag_68:\n    tag_67:\n        /* \"PH/contracts/Payout.sol\":976:977  c */\n      dup1\n        /* \"PH/contracts/Payout.sol\":969:977  return c */\n      swap2\n      pop\n      pop\n        /* \"PH/contracts/Payout.sol\":841:984  function add(uint256 a, uint256 b) internal pure returns (uint256) {... */\n      swap3\n      swap2\n      pop\n      pop\n      jump\t// out\n        /* \"PH/contracts/Payout.sol\":426:709  function div(uint256 a, uint256 b) internal pure returns (uint256) {... */\n    tag_57:\n        /* \"PH/contracts/Payout.sol\":484:491  uint256 */\n      0x00\n        /* \"PH/contracts/Payout.sol\":581:590  uint256 c */\n      dup1\n        /* \"PH/contracts/Payout.sol\":597:598  b */\n      dup3\n        /* \"PH/contracts/Payout.sol\":593:594  a */\n      dup5\n        /* \"PH/contracts/Payout.sol\":593:598  a / b */\n      tag_71\n      swap2\n      swap1\n      tag_72\n      jump\t// in\n    tag_71:\n        /* \"PH/contracts/Payout.sol\":581:598  uint256 c = a / b */\n      swap1\n      pop\n        /* \"PH/contracts/Payout.sol\":701:702  c */\n      dup1\n        /* \"PH/contracts/Payout.sol\":694:702  return c */\n      swap2\n      pop\n      pop\n        /* \"PH/contracts/Payout.sol\":426:709  function div(uint256 a, uint256 b) internal pure returns (uint256) {... */\n      swap3\n      swap2\n      pop\n      pop\n      jump\t// out\n        /* \"PH/contracts/Payout.sol\":219:420  function mul(uint256 a, uint256 b) internal pure returns (uint256) {... */\n    tag_62:\n        /* \"PH/contracts/Payout.sol\":277:284  uint256 */\n      0x00\n        /* \"PH/contracts/Payout.sol\":305:306  0 */\n      dup1\n        /* \"PH/contracts/Payout.sol\":300:301  a */\n      dup4\n        /* \"PH/contracts/Payout.sol\":300:306  a == 0 */\n      sub\n        /* \"PH/contracts/Payout.sol\":296:341  if (a == 0) {... */\n      tag_74\n      jumpi\n        /* \"PH/contracts/Payout.sol\":329:330  0 */\n      0x00\n        /* \"PH/contracts/Payout.sol\":322:330  return 0 */\n      swap1\n      pop\n      jump(tag_73)\n        /* \"PH/contracts/Payout.sol\":296:341  if (a == 0) {... */\n    tag_74:\n        /* \"PH/contracts/Payout.sol\":350:359  uint256 c */\n      0x00\n        /* \"PH/contracts/Payout.sol\":366:367  b */\n      dup3\n        /* \"PH/contracts/Payout.sol\":362:363  a */\n      dup5\n        /* \"PH/contracts/Payout.sol\":362:367  a * b */\n      tag_75\n      swap2\n      swap1\n      tag_76\n      jump\t// in\n    tag_75:\n        /* \"PH/contracts/Payout.sol\":350:367  uint256 c = a * b */\n      swap1\n      pop\n        /* \"PH/contracts/Payout.sol\":393:394  b */\n      dup3\n        /* \"PH/contracts/Payout.sol\":388:389  a */\n      dup5\n        /* \"PH/contracts/Payout.sol\":384:385  c */\n      dup3\n        /* \"PH/contracts/Payout.sol\":384:389  c / a */\n      tag_77\n      swap2\n      swap1\n      tag_72\n      jump\t// in\n    tag_77:\n        /* \"PH/contracts/Payout.sol\":384:394  c / a == b */\n      eq\n        /* \"PH/contracts/Payout.sol\":377:395  assert(c / a == b) */\n      tag_78\n      jumpi\n      tag_79\n      tag_69\n      jump\t// in\n    tag_79:\n    tag_78:\n        /* \"PH/contracts/Payout.sol\":412:413  c */\n      dup1\n        /* \"PH/contracts/Payout.sol\":405:413  return c */\n      swap2\n      pop\n      pop\n        /* \"PH/contracts/Payout.sol\":219:420  function mul(uint256 a, uint256 b) internal pure returns (uint256) {... */\n    tag_73:\n      swap3\n      swap2\n      pop\n      pop\n      jump\t// out\n        /* \"#utility.yul\":88:205   */\n    tag_81:\n        /* \"#utility.yul\":197:198   */\n      0x00\n        /* \"#utility.yul\":194:195   */\n      dup1\n        /* \"#utility.yul\":187:199   */\n      revert\n        /* \"#utility.yul\":334:411   */\n    tag_83:\n        /* \"#utility.yul\":371:378   */\n      0x00\n        /* \"#utility.yul\":400:405   */\n      dup2\n        /* \"#utility.yul\":389:405   */\n      swap1\n      pop\n        /* \"#utility.yul\":334:411   */\n      swap2\n      swap1\n      pop\n      jump\t// out\n        /* \"#utility.yul\":417:539   */\n    tag_84:\n        /* \"#utility.yul\":490:514   */\n      tag_109\n        /* \"#utility.yul\":508:513   */\n      dup2\n        /* \"#utility.yul\":490:514   */\n      tag_83\n      jump\t// in\n    tag_109:\n        /* \"#utility.yul\":483:488   */\n      dup2\n        /* \"#utility.yul\":480:515   */\n      eq\n        /* \"#utility.yul\":470:533   */\n      tag_110\n      jumpi\n        /* \"#utility.yul\":529:530   */\n      0x00\n        /* \"#utility.yul\":526:527   */\n      dup1\n        /* \"#utility.yul\":519:531   */\n      revert\n        /* \"#utility.yul\":470:533   */\n    tag_110:\n        /* \"#utility.yul\":417:539   */\n      pop\n      jump\t// out\n        /* \"#utility.yul\":545:684   */\n    tag_85:\n        /* \"#utility.yul\":591:596   */\n      0x00\n        /* \"#utility.yul\":629:635   */\n      dup2\n        /* \"#utility.yul\":616:636   */\n      calldataload\n        /* \"#utility.yul\":607:636   */\n      swap1\n      pop\n        /* \"#utility.yul\":645:678   */\n      tag_112\n        /* \"#utility.yul\":672:677   */\n      dup2\n        /* \"#utility.yul\":645:678   */\n      tag_84\n      jump\t// in\n    tag_112:\n        /* \"#utility.yul\":545:684   */\n      swap3\n      swap2\n      pop\n      pop\n      jump\t// out\n        /* \"#utility.yul\":690:816   */\n    tag_86:\n        /* \"#utility.yul\":727:734   */\n      0x00\n        /* \"#utility.yul\":767:809   */\n      0xffffffffffffffffffffffffffffffffffffffff\n        /* \"#utility.yul\":760:765   */\n      dup3\n        /* \"#utility.yul\":756:810   */\n      and\n        /* \"#utility.yul\":745:810   */\n      swap1\n      pop\n        /* \"#utility.yul\":690:816   */\n      swap2\n      swap1\n      pop\n      jump\t// out\n        /* \"#utility.yul\":822:918   */\n    tag_87:\n        /* \"#utility.yul\":859:866   */\n      0x00\n        /* \"#utility.yul\":888:912   */\n      tag_115\n        /* \"#utility.yul\":906:911   */\n      dup3\n        /* \"#utility.yul\":888:912   */\n      tag_86\n      jump\t// in\n    tag_115:\n        /* \"#utility.yul\":877:912   */\n      swap1\n      pop\n        /* \"#utility.yul\":822:918   */\n      swap2\n      swap1\n      pop\n      jump\t// out\n        /* \"#utility.yul\":924:1046   */\n    tag_88:\n        /* \"#utility.yul\":997:1021   */\n      tag_117\n        /* \"#utility.yul\":1015:1020   */\n      dup2\n        /* \"#utility.yul\":997:1021   */\n      tag_87\n      jump\t// in\n    tag_117:\n        /* \"#utility.yul\":990:995   */\n      dup2\n        /* \"#utility.yul\":987:1022   */\n      eq\n        /* \"#utility.yul\":977:1040   */\n      tag_118\n      jumpi\n        /* \"#utility.yul\":1036:1037   */\n      0x00\n        /* \"#utility.yul\":1033:1034   */\n      dup1\n        /* \"#utility.yul\":1026:1038   */\n      revert\n        /* \"#utility.yul\":977:1040   */\n    tag_118:\n        /* \"#utility.yul\":924:1046   */\n      pop\n      jump\t// out\n        /* \"#utility.yul\":1052:1191   */\n    tag_89:\n        /* \"#utility.yul\":1098:1103   */\n      0x00\n        /* \"#utility.yul\":1136:1142   */\n      dup2\n        /* \"#utility.yul\":1123:1143   */\n      calldataload\n        /* \"#utility.yul\":1114:1143   */\n      swap1\n      pop\n        /* \"#utility.yul\":1152:1185   */\n      tag_120\n        /* \"#utility.yul\":1179:1184   */\n      dup2\n        /* \"#utility.yul\":1152:1185   */\n      tag_88\n      jump\t// in\n    tag_120:\n        /* \"#utility.yul\":1052:1191   */\n      swap3\n      swap2\n      pop\n      pop\n      jump\t// out\n        /* \"#utility.yul\":1197:1671   */\n    tag_10:\n        /* \"#utility.yul\":1265:1271   */\n      0x00\n        /* \"#utility.yul\":1273:1279   */\n      dup1\n        /* \"#utility.yul\":1322:1324   */\n      0x40\n        /* \"#utility.yul\":1310:1319   */\n      dup4\n        /* \"#utility.yul\":1301:1308   */\n      dup6\n        /* \"#utility.yul\":1297:1320   */\n      sub\n        /* \"#utility.yul\":1293:1325   */\n      slt\n        /* \"#utility.yul\":1290:1409   */\n      iszero\n      tag_122\n      jumpi\n        /* \"#utility.yul\":1328:1407   */\n      tag_123\n      tag_81\n      jump\t// in\n    tag_123:\n        /* \"#utility.yul\":1290:1409   */\n    tag_122:\n        /* \"#utility.yul\":1448:1449   */\n      0x00\n        /* \"#utility.yul\":1473:1526   */\n      tag_124\n        /* \"#utility.yul\":1518:1525   */\n      dup6\n        /* \"#utility.yul\":1509:1515   */\n      dup3\n        /* \"#utility.yul\":1498:1507   */\n      dup7\n        /* \"#utility.yul\":1494:1516   */\n      add\n        /* \"#utility.yul\":1473:1526   */\n      tag_85\n      jump\t// in\n    tag_124:\n        /* \"#utility.yul\":1463:1526   */\n      swap3\n      pop\n        /* \"#utility.yul\":1419:1536   */\n      pop\n        /* \"#utility.yul\":1575:1577   */\n      0x20\n        /* \"#utility.yul\":1601:1654   */\n      tag_125\n        /* \"#utility.yul\":1646:1653   */\n      dup6\n        /* \"#utility.yul\":1637:1643   */\n      dup3\n        /* \"#utility.yul\":1626:1635   */\n      dup7\n        /* \"#utility.yul\":1622:1644   */\n      add\n        /* \"#utility.yul\":1601:1654   */\n      tag_89\n      jump\t// in\n    tag_125:\n        /* \"#utility.yul\":1591:1654   */\n      swap2\n      pop\n        /* \"#utility.yul\":1546:1664   */\n      pop\n        /* \"#utility.yul\":1197:1671   */\n      swap3\n      pop\n      swap3\n      swap1\n      pop\n      jump\t// out\n        /* \"#utility.yul\":1677:1767   */\n    tag_90:\n        /* \"#utility.yul\":1711:1718   */\n      0x00\n        /* \"#utility.yul\":1754:1759   */\n      dup2\n        /* \"#utility.yul\":1747:1760   */\n      iszero\n        /* \"#utility.yul\":1740:1761   */\n      iszero\n        /* \"#utility.yul\":1729:1761   */\n      swap1\n      pop\n        /* \"#utility.yul\":1677:1767   */\n      swap2\n      swap1\n      pop\n      jump\t// out\n        /* \"#utility.yul\":1773:1882   */\n    tag_91:\n        /* \"#utility.yul\":1854:1875   */\n      tag_128\n        /* \"#utility.yul\":1869:1874   */\n      dup2\n        /* \"#utility.yul\":1854:1875   */\n      tag_90\n      jump\t// in\n    tag_128:\n        /* \"#utility.yul\":1849:1852   */\n      dup3\n        /* \"#utility.yul\":1842:1876   */\n      mstore\n        /* \"#utility.yul\":1773:1882   */\n      pop\n      pop\n      jump\t// out\n        /* \"#utility.yul\":1888:2098   */\n    tag_13:\n        /* \"#utility.yul\":1975:1979   */\n      0x00\n        /* \"#utility.yul\":2013:2015   */\n      0x20\n        /* \"#utility.yul\":2002:2011   */\n      dup3\n        /* \"#utility.yul\":1998:2016   */\n      add\n        /* \"#utility.yul\":1990:2016   */\n      swap1\n      pop\n        /* \"#utility.yul\":2026:2091   */\n      tag_130\n        /* \"#utility.yul\":2088:2089   */\n      0x00\n        /* \"#utility.yul\":2077:2086   */\n      dup4\n        /* \"#utility.yul\":2073:2090   */\n      add\n        /* \"#utility.yul\":2064:2070   */\n      dup5\n        /* \"#utility.yul\":2026:2091   */\n      tag_91\n      jump\t// in\n    tag_130:\n        /* \"#utility.yul\":1888:2098   */\n      swap3\n      swap2\n      pop\n      pop\n      jump\t// out\n        /* \"#utility.yul\":2104:2433   */\n    tag_22:\n        /* \"#utility.yul\":2163:2169   */\n      0x00\n        /* \"#utility.yul\":2212:2214   */\n      0x20\n        /* \"#utility.yul\":2200:2209   */\n      dup3\n        /* \"#utility.yul\":2191:2198   */\n      dup5\n        /* \"#utility.yul\":2187:2210   */\n      sub\n        /* \"#utility.yul\":2183:2215   */\n      slt\n        /* \"#utility.yul\":2180:2299   */\n      iszero\n      tag_132\n      jumpi\n        /* \"#utility.yul\":2218:2297   */\n      tag_133\n      tag_81\n      jump\t// in\n    tag_133:\n        /* \"#utility.yul\":2180:2299   */\n    tag_132:\n        /* \"#utility.yul\":2338:2339   */\n      0x00\n        /* \"#utility.yul\":2363:2416   */\n      tag_134\n        /* \"#utility.yul\":2408:2415   */\n      dup5\n        /* \"#utility.yul\":2399:2405   */\n      dup3\n        /* \"#utility.yul\":2388:2397   */\n      dup6\n        /* \"#utility.yul\":2384:2406   */\n      add\n        /* \"#utility.yul\":2363:2416   */\n      tag_89\n      jump\t// in\n    tag_134:\n        /* \"#utility.yul\":2353:2416   */\n      swap2\n      pop\n        /* \"#utility.yul\":2309:2426   */\n      pop\n        /* \"#utility.yul\":2104:2433   */\n      swap3\n      swap2\n      pop\n      pop\n      jump\t// out\n        /* \"#utility.yul\":2439:2557   */\n    tag_92:\n        /* \"#utility.yul\":2526:2550   */\n      tag_136\n        /* \"#utility.yul\":2544:2549   */\n      dup2\n        /* \"#utility.yul\":2526:2550   */\n      tag_83\n      jump\t// in\n    tag_136:\n        /* \"#utility.yul\":2521:2524   */\n      dup3\n        /* \"#utility.yul\":2514:2551   */\n      mstore\n        /* \"#utility.yul\":2439:2557   */\n      pop\n      pop\n      jump\t// out\n        /* \"#utility.yul\":2563:2785   */\n    tag_25:\n        /* \"#utility.yul\":2656:2660   */\n      0x00\n        /* \"#utility.yul\":2694:2696   */\n      0x20\n        /* \"#utility.yul\":2683:2692   */\n      dup3\n        /* \"#utility.yul\":2679:2697   */\n      add\n        /* \"#utility.yul\":2671:2697   */\n      swap1\n      pop\n        /* \"#utility.yul\":2707:2778   */\n      tag_138\n        /* \"#utility.yul\":2775:2776   */\n      0x00\n        /* \"#utility.yul\":2764:2773   */\n      dup4\n        /* \"#utility.yul\":2760:2777   */\n      add\n        /* \"#utility.yul\":2751:2757   */\n      dup5\n        /* \"#utility.yul\":2707:2778   */\n      tag_92\n      jump\t// in\n    tag_138:\n        /* \"#utility.yul\":2563:2785   */\n      swap3\n      swap2\n      pop\n      pop\n      jump\t// out\n        /* \"#utility.yul\":2791:3120   */\n    tag_29:\n        /* \"#utility.yul\":2850:2856   */\n      0x00\n        /* \"#utility.yul\":2899:2901   */\n      0x20\n        /* \"#utility.yul\":2887:2896   */\n      dup3\n        /* \"#utility.yul\":2878:2885   */\n      dup5\n        /* \"#utility.yul\":2874:2897   */\n      sub\n        /* \"#utility.yul\":2870:2902   */\n      slt\n        /* \"#utility.yul\":2867:2986   */\n      iszero\n      tag_140\n      jumpi\n        /* \"#utility.yul\":2905:2984   */\n      tag_141\n      tag_81\n      jump\t// in\n    tag_141:\n        /* \"#utility.yul\":2867:2986   */\n    tag_140:\n        /* \"#utility.yul\":3025:3026   */\n      0x00\n        /* \"#utility.yul\":3050:3103   */\n      tag_142\n        /* \"#utility.yul\":3095:3102   */\n      dup5\n        /* \"#utility.yul\":3086:3092   */\n      dup3\n        /* \"#utility.yul\":3075:3084   */\n      dup6\n        /* \"#utility.yul\":3071:3093   */\n      add\n        /* \"#utility.yul\":3050:3103   */\n      tag_85\n      jump\t// in\n    tag_142:\n        /* \"#utility.yul\":3040:3103   */\n      swap2\n      pop\n        /* \"#utility.yul\":2996:3113   */\n      pop\n        /* \"#utility.yul\":2791:3120   */\n      swap3\n      swap2\n      pop\n      pop\n      jump\t// out\n        /* \"#utility.yul\":3126:3244   */\n    tag_93:\n        /* \"#utility.yul\":3213:3237   */\n      tag_144\n        /* \"#utility.yul\":3231:3236   */\n      dup2\n        /* \"#utility.yul\":3213:3237   */\n      tag_87\n      jump\t// in\n    tag_144:\n        /* \"#utility.yul\":3208:3211   */\n      dup3\n        /* \"#utility.yul\":3201:3238   */\n      mstore\n        /* \"#utility.yul\":3126:3244   */\n      pop\n      pop\n      jump\t// out\n        /* \"#utility.yul\":3250:3472   */\n    tag_32:\n        /* \"#utility.yul\":3343:3347   */\n      0x00\n        /* \"#utility.yul\":3381:3383   */\n      0x20\n        /* \"#utility.yul\":3370:3379   */\n      dup3\n        /* \"#utility.yul\":3366:3384   */\n      add\n        /* \"#utility.yul\":3358:3384   */\n      swap1\n      pop\n        /* \"#utility.yul\":3394:3465   */\n      tag_146\n        /* \"#utility.yul\":3462:3463   */\n      0x00\n        /* \"#utility.yul\":3451:3460   */\n      dup4\n        /* \"#utility.yul\":3447:3464   */\n      add\n        /* \"#utility.yul\":3438:3444   */\n      dup5\n        /* \"#utility.yul\":3394:3465   */\n      tag_93\n      jump\t// in\n    tag_146:\n        /* \"#utility.yul\":3250:3472   */\n      swap3\n      swap2\n      pop\n      pop\n      jump\t// out\n        /* \"#utility.yul\":3478:3658   */\n    tag_94:\n        /* \"#utility.yul\":3526:3603   */\n      0x4e487b7100000000000000000000000000000000000000000000000000000000\n        /* \"#utility.yul\":3523:3524   */\n      0x00\n        /* \"#utility.yul\":3516:3604   */\n      mstore\n        /* \"#utility.yul\":3623:3627   */\n      0x11\n        /* \"#utility.yul\":3620:3621   */\n      0x04\n        /* \"#utility.yul\":3613:3628   */\n      mstore\n        /* \"#utility.yul\":3647:3651   */\n      0x24\n        /* \"#utility.yul\":3644:3645   */\n      0x00\n        /* \"#utility.yul\":3637:3652   */\n      revert\n        /* \"#utility.yul\":3664:3855   */\n    tag_37:\n        /* \"#utility.yul\":3704:3707   */\n      0x00\n        /* \"#utility.yul\":3723:3743   */\n      tag_149\n        /* \"#utility.yul\":3741:3742   */\n      dup3\n        /* \"#utility.yul\":3723:3743   */\n      tag_83\n      jump\t// in\n    tag_149:\n        /* \"#utility.yul\":3718:3743   */\n      swap2\n      pop\n        /* \"#utility.yul\":3757:3777   */\n      tag_150\n        /* \"#utility.yul\":3775:3776   */\n      dup4\n        /* \"#utility.yul\":3757:3777   */\n      tag_83\n      jump\t// in\n    tag_150:\n        /* \"#utility.yul\":3752:3777   */\n      swap3\n      pop\n        /* \"#utility.yul\":3800:3801   */\n      dup3\n        /* \"#utility.yul\":3797:3798   */\n      dup3\n        /* \"#utility.yul\":3793:3802   */\n      add\n        /* \"#utility.yul\":3786:3802   */\n      swap1\n      pop\n        /* \"#utility.yul\":3821:3824   */\n      dup1\n        /* \"#utility.yul\":3818:3819   */\n      dup3\n        /* \"#utility.yul\":3815:3825   */\n      gt\n        /* \"#utility.yul\":3812:3848   */\n      iszero\n      tag_151\n      jumpi\n        /* \"#utility.yul\":3828:3846   */\n      tag_152\n      tag_94\n      jump\t// in\n    tag_152:\n        /* \"#utility.yul\":3812:3848   */\n    tag_151:\n        /* \"#utility.yul\":3664:3855   */\n      swap3\n      swap2\n      pop\n      pop\n      jump\t// out\n        /* \"#utility.yul\":3861:4030   */\n    tag_95:\n        /* \"#utility.yul\":3945:3956   */\n      0x00\n        /* \"#utility.yul\":3979:3985   */\n      dup3\n        /* \"#utility.yul\":3974:3977   */\n      dup3\n        /* \"#utility.yul\":3967:3986   */\n      mstore\n        /* \"#utility.yul\":4019:4023   */\n      0x20\n        /* \"#utility.yul\":4014:4017   */\n      dup3\n        /* \"#utility.yul\":4010:4024   */\n      add\n        /* \"#utility.yul\":3995:4024   */\n      swap1\n      pop\n        /* \"#utility.yul\":3861:4030   */\n      swap3\n      swap2\n      pop\n      pop\n      jump\t// out\n        /* \"#utility.yul\":4036:4211   */\n    tag_96:\n        /* \"#utility.yul\":4176:4203   */\n      0x50657263656e746167657320617265206e6f742076616c696400000000000000\n        /* \"#utility.yul\":4172:4173   */\n      0x00\n        /* \"#utility.yul\":4164:4170   */\n      dup3\n        /* \"#utility.yul\":4160:4174   */\n      add\n        /* \"#utility.yul\":4153:4204   */\n      mstore\n        /* \"#utility.yul\":4036:4211   */\n      pop\n      jump\t// out\n        /* \"#utility.yul\":4217:4583   */\n    tag_97:\n        /* \"#utility.yul\":4359:4362   */\n      0x00\n        /* \"#utility.yul\":4380:4447   */\n      tag_156\n        /* \"#utility.yul\":4444:4446   */\n      0x19\n        /* \"#utility.yul\":4439:4442   */\n      dup4\n        /* \"#utility.yul\":4380:4447   */\n      tag_95\n      jump\t// in\n    tag_156:\n        /* \"#utility.yul\":4373:4447   */\n      swap2\n      pop\n        /* \"#utility.yul\":4456:4549   */\n      tag_157\n        /* \"#utility.yul\":4545:4548   */\n      dup3\n        /* \"#utility.yul\":4456:4549   */\n      tag_96\n      jump\t// in\n    tag_157:\n        /* \"#utility.yul\":4574:4576   */\n      0x20\n        /* \"#utility.yul\":4569:4572   */\n      dup3\n        /* \"#utility.yul\":4565:4577   */\n      add\n        /* \"#utility.yul\":4558:4577   */\n      swap1\n      pop\n        /* \"#utility.yul\":4217:4583   */\n      swap2\n      swap1\n      pop\n      jump\t// out\n        /* \"#utility.yul\":4589:5008   */\n    tag_40:\n        /* \"#utility.yul\":4755:4759   */\n      0x00\n        /* \"#utility.yul\":4793:4795   */\n      0x20\n        /* \"#utility.yul\":4782:4791   */\n      dup3\n        /* \"#utility.yul\":4778:4796   */\n      add\n        /* \"#utility.yul\":4770:4796   */\n      swap1\n      pop\n        /* \"#utility.yul\":4842:4851   */\n      dup2\n        /* \"#utility.yul\":4836:4840   */\n      dup2\n        /* \"#utility.yul\":4832:4852   */\n      sub\n        /* \"#utility.yul\":4828:4829   */\n      0x00\n        /* \"#utility.yul\":4817:4826   */\n      dup4\n        /* \"#utility.yul\":4813:4830   */\n      add\n        /* \"#utility.yul\":4806:4853   */\n      mstore\n        /* \"#utility.yul\":4870:5001   */\n      tag_159\n        /* \"#utility.yul\":4996:5000   */\n      dup2\n        /* \"#utility.yul\":4870:5001   */\n      tag_97\n      jump\t// in\n    tag_159:\n        /* \"#utility.yul\":4862:5001   */\n      swap1\n      pop\n        /* \"#utility.yul\":4589:5008   */\n      swap2\n      swap1\n      pop\n      jump\t// out\n        /* \"#utility.yul\":5014:5247   */\n    tag_42:\n        /* \"#utility.yul\":5053:5056   */\n      0x00\n        /* \"#utility.yul\":5076:5100   */\n      tag_161\n        /* \"#utility.yul\":5094:5099   */\n      dup3\n        /* \"#utility.yul\":5076:5100   */\n      tag_83\n      jump\t// in\n    tag_161:\n        /* \"#utility.yul\":5067:5100   */\n      swap2\n      pop\n        /* \"#utility.yul\":5122:5188   */\n      0xffffffffffffffffffffffffffffffffffffffffffffffffffffffffffffffff\n        /* \"#utility.yul\":5115:5120   */\n      dup3\n        /* \"#utility.yul\":5112:5189   */\n      sub\n        /* \"#utility.yul\":5109:5212   */\n      tag_162\n      jumpi\n        /* \"#utility.yul\":5192:5210   */\n      tag_163\n      tag_94\n      jump\t// in\n    tag_163:\n        /* \"#utility.yul\":5109:5212   */\n    tag_162:\n        /* \"#utility.yul\":5239:5240   */\n      0x01\n        /* \"#utility.yul\":5232:5237   */\n      dup3\n        /* \"#utility.yul\":5228:5241   */\n      add\n        /* \"#utility.yul\":5221:5241   */\n      swap1\n      pop\n        /* \"#utility.yul\":5014:5247   */\n      swap2\n      swap1\n      pop\n      jump\t// out\n        /* \"#utility.yul\":5253:5476   */\n    tag_98:\n        /* \"#utility.yul\":5393:5427   */\n      0x526f79616c747920616d6f756e74206d75737420626520686967686572207468\n        /* \"#utility.yul\":5389:5390   */\n      0x00\n        /* \"#utility.yul\":5381:5387   */\n      dup3\n        /* \"#utility.yul\":5377:5391   */\n      add\n        /* \"#utility.yul\":5370:5428   */\n      mstore\n        /* \"#utility.yul\":5462:5468   */\n      0x616e203000000000000000000000000000000000000000000000000000000000\n        /* \"#utility.yul\":5457:5459   */\n      0x20\n        /* \"#utility.yul\":5449:5455   */\n      dup3\n        /* \"#utility.yul\":5445:5460   */\n      add\n        /* \"#utility.yul\":5438:5469   */\n      mstore\n        /* \"#utility.yul\":5253:5476   */\n      pop\n      jump\t// out\n        /* \"#utility.yul\":5482:5848   */\n    tag_99:\n        /* \"#utility.yul\":5624:5627   */\n      0x00\n        /* \"#utility.yul\":5645:5712   */\n      tag_166\n        /* \"#utility.yul\":5709:5711   */\n      0x24\n        /* \"#utility.yul\":5704:5707   */\n      dup4\n        /* \"#utility.yul\":5645:5712   */\n      tag_95\n      jump\t// in\n    tag_166:\n        /* \"#utility.yul\":5638:5712   */\n      swap2\n      pop\n        /* \"#utility.yul\":5721:5814   */\n      tag_167\n        /* \"#utility.yul\":5810:5813   */\n      dup3\n        /* \"#utility.yul\":5721:5814   */\n      tag_98\n      jump\t// in\n    tag_167:\n        /* \"#utility.yul\":5839:5841   */\n      0x40\n        /* \"#utility.yul\":5834:5837   */\n      dup3\n        /* \"#utility.yul\":5830:5842   */\n      add\n        /* \"#utility.yul\":5823:5842   */\n      swap1\n      pop\n        /* \"#utility.yul\":5482:5848   */\n      swap2\n      swap1\n      pop\n      jump\t// out\n        /* \"#utility.yul\":5854:6273   */\n    tag_48:\n        /* \"#utility.yul\":6020:6024   */\n      0x00\n        /* \"#utility.yul\":6058:6060   */\n      0x20\n        /* \"#utility.yul\":6047:6056   */\n      dup3\n        /* \"#utility.yul\":6043:6061   */\n      add\n        /* \"#utility.yul\":6035:6061   */\n      swap1\n      pop\n        /* \"#utility.yul\":6107:6116   */\n      dup2\n        /* \"#utility.yul\":6101:6105   */\n      dup2\n        /* \"#utility.yul\":6097:6117   */\n      sub\n        /* \"#utility.yul\":6093:6094   */\n      0x00\n        /* \"#utility.yul\":6082:6091   */\n      dup4\n        /* \"#utility.yul\":6078:6095   */\n      add\n        /* \"#utility.yul\":6071:6118   */\n      mstore\n        /* \"#utility.yul\":6135:6266   */\n      tag_169\n        /* \"#utility.yul\":6261:6265   */\n      dup2\n        /* \"#utility.yul\":6135:6266   */\n      tag_99\n      jump\t// in\n    tag_169:\n        /* \"#utility.yul\":6127:6266   */\n      swap1\n      pop\n        /* \"#utility.yul\":5854:6273   */\n      swap2\n      swap1\n      pop\n      jump\t// out\n        /* \"#utility.yul\":6279:6505   */\n    tag_100:\n        /* \"#utility.yul\":6419:6453   */\n      0x4e6f2066756e64732068617665206265656e2073656e7420746f207468652063\n        /* \"#utility.yul\":6415:6416   */\n      0x00\n        /* \"#utility.yul\":6407:6413   */\n      dup3\n        /* \"#utility.yul\":6403:6417   */\n      add\n        /* \"#utility.yul\":6396:6454   */\n      mstore\n        /* \"#utility.yul\":6488:6497   */\n      0x6f6e747261637400000000000000000000000000000000000000000000000000\n        /* \"#utility.yul\":6483:6485   */\n      0x20\n        /* \"#utility.yul\":6475:6481   */\n      dup3\n        /* \"#utility.yul\":6471:6486   */\n      add\n        /* \"#utility.yul\":6464:6498   */\n      mstore\n        /* \"#utility.yul\":6279:6505   */\n      pop\n      jump\t// out\n        /* \"#utility.yul\":6511:6877   */\n    tag_101:\n        /* \"#utility.yul\":6653:6656   */\n      0x00\n        /* \"#utility.yul\":6674:6741   */\n      tag_172\n        /* \"#utility.yul\":6738:6740   */\n      0x27\n        /* \"#utility.yul\":6733:6736   */\n      dup4\n        /* \"#utility.yul\":6674:6741   */\n      tag_95\n      jump\t// in\n    tag_172:\n        /* \"#utility.yul\":6667:6741   */\n      swap2\n      pop\n        /* \"#utility.yul\":6750:6843   */\n      tag_173\n        /* \"#utility.yul\":6839:6842   */\n      dup3\n        /* \"#utility.yul\":6750:6843   */\n      tag_100\n      jump\t// in\n    tag_173:\n        /* \"#utility.yul\":6868:6870   */\n      0x40\n        /* \"#utility.yul\":6863:6866   */\n      dup3\n        /* \"#utility.yul\":6859:6871   */\n      add\n        /* \"#utility.yul\":6852:6871   */\n      swap1\n      pop\n        /* \"#utility.yul\":6511:6877   */\n      swap2\n      swap1\n      pop\n      jump\t// out\n        /* \"#utility.yul\":6883:7302   */\n    tag_53:\n        /* \"#utility.yul\":7049:7053   */\n      0x00\n        /* \"#utility.yul\":7087:7089   */\n      0x20\n        /* \"#utility.yul\":7076:7085   */\n      dup3\n        /* \"#utility.yul\":7072:7090   */\n      add\n        /* \"#utility.yul\":7064:7090   */\n      swap1\n      pop\n        /* \"#utility.yul\":7136:7145   */\n      dup2\n        /* \"#utility.yul\":7130:7134   */\n      dup2\n        /* \"#utility.yul\":7126:7146   */\n      sub\n        /* \"#utility.yul\":7122:7123   */\n      0x00\n        /* \"#utility.yul\":7111:7120   */\n      dup4\n        /* \"#utility.yul\":7107:7124   */\n      add\n        /* \"#utility.yul\":7100:7147   */\n      mstore\n        /* \"#utility.yul\":7164:7295   */\n      tag_175\n        /* \"#utility.yul\":7290:7294   */\n      dup2\n        /* \"#utility.yul\":7164:7295   */\n      tag_101\n      jump\t// in\n    tag_175:\n        /* \"#utility.yul\":7156:7295   */\n      swap1\n      pop\n        /* \"#utility.yul\":6883:7302   */\n      swap2\n      swap1\n      pop\n      jump\t// out\n        /* \"#utility.yul\":7308:7488   */\n    tag_69:\n        /* \"#utility.yul\":7356:7433   */\n      0x4e487b7100000000000000000000000000000000000000000000000000000000\n        /* \"#utility.yul\":7353:7354   */\n      0x00\n        /* \"#utility.yul\":7346:7434   */\n      mstore\n        /* \"#utility.yul\":7453:7457   */\n      0x01\n        /* \"#utility.yul\":7450:7451   */\n      0x04\n        /* \"#utility.yul\":7443:7458   */\n      mstore\n        /* \"#utility.yul\":7477:7481   */\n      0x24\n        /* \"#utility.yul\":7474:7475   */\n      0x00\n        /* \"#utility.yul\":7467:7482   */\n      revert\n        /* \"#utility.yul\":7494:7674   */\n    tag_102:\n        /* \"#utility.yul\":7542:7619   */\n      0x4e487b7100000000000000000000000000000000000000000000000000000000\n        /* \"#utility.yul\":7539:7540   */\n      0x00\n        /* \"#utility.yul\":7532:7620   */\n      mstore\n        /* \"#utility.yul\":7639:7643   */\n      0x12\n        /* \"#utility.yul\":7636:7637   */\n      0x04\n        /* \"#utility.yul\":7629:7644   */\n      mstore\n        /* \"#utility.yul\":7663:7667   */\n      0x24\n        /* \"#utility.yul\":7660:7661   */\n      0x00\n        /* \"#utility.yul\":7653:7668   */\n      revert\n        /* \"#utility.yul\":7680:7865   */\n    tag_72:\n        /* \"#utility.yul\":7720:7721   */\n      0x00\n        /* \"#utility.yul\":7737:7757   */\n      tag_179\n        /* \"#utility.yul\":7755:7756   */\n      dup3\n        /* \"#utility.yul\":7737:7757   */\n      tag_83\n      jump\t// in\n    tag_179:\n        /* \"#utility.yul\":7732:7757   */\n      swap2\n      pop\n        /* \"#utility.yul\":7771:7791   */\n      tag_180\n        /* \"#utility.yul\":7789:7790   */\n      dup4\n        /* \"#utility.yul\":7771:7791   */\n      tag_83\n      jump\t// in\n    tag_180:\n        /* \"#utility.yul\":7766:7791   */\n      swap3\n      pop\n        /* \"#utility.yul\":7810:7811   */\n      dup3\n        /* \"#utility.yul\":7800:7835   */\n      tag_181\n      jumpi\n        /* \"#utility.yul\":7815:7833   */\n      tag_182\n      tag_102\n      jump\t// in\n    tag_182:\n        /* \"#utility.yul\":7800:7835   */\n    tag_181:\n        /* \"#utility.yul\":7857:7858   */\n      dup3\n        /* \"#utility.yul\":7854:7855   */\n      dup3\n        /* \"#utility.yul\":7850:7859   */\n      div\n        /* \"#utility.yul\":7845:7859   */\n      swap1\n      pop\n        /* \"#utility.yul\":7680:7865   */\n      swap3\n      swap2\n      pop\n      pop\n      jump\t// out\n        /* \"#utility.yul\":7871:8281   */\n    tag_76:\n        /* \"#utility.yul\":7911:7918   */\n      0x00\n        /* \"#utility.yul\":7934:7954   */\n      tag_184\n        /* \"#utility.yul\":7952:7953   */\n      dup3\n        /* \"#utility.yul\":7934:7954   */\n      tag_83\n      jump\t// in\n    tag_184:\n        /* \"#utility.yul\":7929:7954   */\n      swap2\n      pop\n        /* \"#utility.yul\":7968:7988   */\n      tag_185\n        /* \"#utility.yul\":7986:7987   */\n      dup4\n        /* \"#utility.yul\":7968:7988   */\n      tag_83\n      jump\t// in\n    tag_185:\n        /* \"#utility.yul\":7963:7988   */\n      swap3\n      pop\n        /* \"#utility.yul\":8023:8024   */\n      dup3\n        /* \"#utility.yul\":8020:8021   */\n      dup3\n        /* \"#utility.yul\":8016:8025   */\n      mul\n        /* \"#utility.yul\":8045:8075   */\n      tag_186\n        /* \"#utility.yul\":8063:8074   */\n      dup2\n        /* \"#utility.yul\":8045:8075   */\n      tag_83\n      jump\t// in\n    tag_186:\n        /* \"#utility.yul\":8034:8075   */\n      swap2\n      pop\n        /* \"#utility.yul\":8224:8225   */\n      dup3\n        /* \"#utility.yul\":8215:8222   */\n      dup3\n        /* \"#utility.yul\":8211:8226   */\n      div\n        /* \"#utility.yul\":8208:8209   */\n      dup5\n        /* \"#utility.yul\":8205:8227   */\n      eq\n        /* \"#utility.yul\":8185:8186   */\n      dup4\n        /* \"#utility.yul\":8178:8187   */\n      iszero\n        /* \"#utility.yul\":8158:8241   */\n      or\n        /* \"#utility.yul\":8135:8274   */\n      tag_187\n      jumpi\n        /* \"#utility.yul\":8254:8272   */\n      tag_188\n      tag_94\n      jump\t// in\n    tag_188:\n        /* \"#utility.yul\":8135:8274   */\n    tag_187:\n        /* \"#utility.yul\":7919:8281   */\n      pop\n        /* \"#utility.yul\":7871:8281   */\n      swap3\n      swap2\n      pop\n      pop\n      jump\t// out\n\n    auxdata: 0xa264697066735822122025aee8273604b3dc28e5bba7be4d0e6655e89f933a2316156ce41ee2e361fed364736f6c63430008160033\n}\n",
				"bytecode": {
					"linkReferences": {},
					"object": "60806040525f80555f6002555f60035534801561001a575f80fd5b50610a4f806100285f395ff3fe608060405260043610610049575f3560e01c80638ab039291461004d578063bd097e2114610089578063c633791f14610093578063ce7c2ac2146100b1578063d1bc76a1146100ed575b5f80fd5b348015610058575f80fd5b50610073600480360381019061006e91906105fc565b610129565b6040516100809190610654565b60405180910390f35b610091610262565b005b61009b6102bf565b6040516100a89190610654565b60405180910390f35b3480156100bc575f80fd5b506100d760048036038101906100d2919061066d565b61049c565b6040516100e491906106a7565b60405180910390f35b3480156100f8575f80fd5b50610113600480360381019061010e91906106c0565b6104b1565b60405161012091906106fa565b60405180910390f35b5f808311801561013a575060648311155b801561015457506064836002546101519190610740565b11155b610193576040517f08c379a000000000000000000000000000000000000000000000000000000000815260040161018a906107cd565b60405180910390fd5b8160045f60035481526020019081526020015f205f6101000a81548173ffffffffffffffffffffffffffffffffffffffff021916908373ffffffffffffffffffffffffffffffffffffffff1602179055508260055f8473ffffffffffffffffffffffffffffffffffffffff1673ffffffffffffffffffffffffffffffffffffffff1681526020019081526020015f208190555060035f815480929190610238906107eb565b9190505550610252836002546104e190919063ffffffff16565b6002819055506001905092915050565b5f34116102a4576040517f08c379a000000000000000000000000000000000000000000000000000000000815260040161029b906108a2565b60405180910390fd5b6102b8345f546104e190919063ffffffff16565b5f81905550565b5f805f5411610303576040517f08c379a00000000000000000000000000000000000000000000000000000000081526004016102fa90610930565b60405180910390fd5b606460025414610315575f9050610499565b5f60028190555061033160645f5461050c90919063ffffffff16565b6001819055505f80819055505f5b600354811015610493575f60045f8381526020019081526020015f205f9054906101000a900473ffffffffffffffffffffffffffffffffffffffff1690508073ffffffffffffffffffffffffffffffffffffffff166108fc6103e960055f8573ffffffffffffffffffffffffffffffffffffffff1673ffffffffffffffffffffffffffffffffffffffff1681526020019081526020015f205460015461052690919063ffffffff16565b90811502906040515f60405180830381858888f19350505050158015610411573d5f803e3d5ffd5b5060045f8381526020019081526020015f205f6101000a81549073ffffffffffffffffffffffffffffffffffffffff021916905560055f8273ffffffffffffffffffffffffffffffffffffffff1673ffffffffffffffffffffffffffffffffffffffff1681526020019081526020015f205f905550808060010191505061033f565b50600190505b90565b6005602052805f5260405f205f915090505481565b6004602052805f5260405f205f915054906101000a900473ffffffffffffffffffffffffffffffffffffffff1681565b5f8082846104ef9190610740565b9050838110156105025761050161094e565b5b8091505092915050565b5f80828461051a91906109a8565b90508091505092915050565b5f808303610536575f9050610565565b5f828461054391906109d8565b905082848261055291906109a8565b146105605761055f61094e565b5b809150505b92915050565b5f80fd5b5f819050919050565b6105818161056f565b811461058b575f80fd5b50565b5f8135905061059c81610578565b92915050565b5f73ffffffffffffffffffffffffffffffffffffffff82169050919050565b5f6105cb826105a2565b9050919050565b6105db816105c1565b81146105e5575f80fd5b50565b5f813590506105f6816105d2565b92915050565b5f80604083850312156106125761061161056b565b5b5f61061f8582860161058e565b9250506020610630858286016105e8565b9150509250929050565b5f8115159050919050565b61064e8161063a565b82525050565b5f6020820190506106675f830184610645565b92915050565b5f602082840312156106825761068161056b565b5b5f61068f848285016105e8565b91505092915050565b6106a18161056f565b82525050565b5f6020820190506106ba5f830184610698565b92915050565b5f602082840312156106d5576106d461056b565b5b5f6106e28482850161058e565b91505092915050565b6106f4816105c1565b82525050565b5f60208201905061070d5f8301846106eb565b92915050565b7f4e487b71000000000000000000000000000000000000000000000000000000005f52601160045260245ffd5b5f61074a8261056f565b91506107558361056f565b925082820190508082111561076d5761076c610713565b5b92915050565b5f82825260208201905092915050565b7f50657263656e746167657320617265206e6f742076616c6964000000000000005f82015250565b5f6107b7601983610773565b91506107c282610783565b602082019050919050565b5f6020820190508181035f8301526107e4816107ab565b9050919050565b5f6107f58261056f565b91507fffffffffffffffffffffffffffffffffffffffffffffffffffffffffffffffff820361082757610826610713565b5b600182019050919050565b7f526f79616c747920616d6f756e74206d757374206265206869676865722074685f8201527f616e203000000000000000000000000000000000000000000000000000000000602082015250565b5f61088c602483610773565b915061089782610832565b604082019050919050565b5f6020820190508181035f8301526108b981610880565b9050919050565b7f4e6f2066756e64732068617665206265656e2073656e7420746f2074686520635f8201527f6f6e747261637400000000000000000000000000000000000000000000000000602082015250565b5f61091a602783610773565b9150610925826108c0565b604082019050919050565b5f6020820190508181035f8301526109478161090e565b9050919050565b7f4e487b71000000000000000000000000000000000000000000000000000000005f52600160045260245ffd5b7f4e487b71000000000000000000000000000000000000000000000000000000005f52601260045260245ffd5b5f6109b28261056f565b91506109bd8361056f565b9250826109cd576109cc61097b565b5b828204905092915050565b5f6109e28261056f565b91506109ed8361056f565b92508282026109fb8161056f565b91508282048414831517610a1257610a11610713565b5b509291505056fea264697066735822122025aee8273604b3dc28e5bba7be4d0e6655e89f933a2316156ce41ee2e361fed364736f6c63430008160033",
					"opcodes": "PUSH1 0x80 PUSH1 0x40 MSTORE PUSH0 DUP1 SSTORE PUSH0 PUSH1 0x2 SSTORE PUSH0 PUSH1 0x3 SSTORE CALLVALUE DUP1 ISZERO PUSH2 0x1A JUMPI PUSH0 DUP1 REVERT JUMPDEST POP PUSH2 0xA4F DUP1 PUSH2 0x28 PUSH0 CODECOPY PUSH0 RETURN INVALID PUSH1 0x80 PUSH1 0x40 MSTORE PUSH1 0x4 CALLDATASIZE LT PUSH2 0x49 JUMPI PUSH0 CALLDATALOAD PUSH1 0xE0 SHR DUP1 PUSH4 0x8AB03929 EQ PUSH2 0x4D JUMPI DUP1 PUSH4 0xBD097E21 EQ PUSH2 0x89 JUMPI DUP1 PUSH4 0xC633791F EQ PUSH2 0x93 JUMPI DUP1 PUSH4 0xCE7C2AC2 EQ PUSH2 0xB1 JUMPI DUP1 PUSH4 0xD1BC76A1 EQ PUSH2 0xED JUMPI JUMPDEST PUSH0 DUP1 REVERT JUMPDEST CALLVALUE DUP1 ISZERO PUSH2 0x58 JUMPI PUSH0 DUP1 REVERT JUMPDEST POP PUSH2 0x73 PUSH1 0x4 DUP1 CALLDATASIZE SUB DUP2 ADD SWAP1 PUSH2 0x6E SWAP2 SWAP1 PUSH2 0x5FC JUMP JUMPDEST PUSH2 0x129 JUMP JUMPDEST PUSH1 0x40 MLOAD PUSH2 0x80 SWAP2 SWAP1 PUSH2 0x654 JUMP JUMPDEST PUSH1 0x40 MLOAD DUP1 SWAP2 SUB SWAP1 RETURN JUMPDEST PUSH2 0x91 PUSH2 0x262 JUMP JUMPDEST STOP JUMPDEST PUSH2 0x9B PUSH2 0x2BF JUMP JUMPDEST PUSH1 0x40 MLOAD PUSH2 0xA8 SWAP2 SWAP1 PUSH2 0x654 JUMP JUMPDEST PUSH1 0x40 MLOAD DUP1 SWAP2 SUB SWAP1 RETURN JUMPDEST CALLVALUE DUP1 ISZERO PUSH2 0xBC JUMPI PUSH0 DUP1 REVERT JUMPDEST POP PUSH2 0xD7 PUSH1 0x4 DUP1 CALLDATASIZE SUB DUP2 ADD SWAP1 PUSH2 0xD2 SWAP2 SWAP1 PUSH2 0x66D JUMP JUMPDEST PUSH2 0x49C JUMP JUMPDEST PUSH1 0x40 MLOAD PUSH2 0xE4 SWAP2 SWAP1 PUSH2 0x6A7 JUMP JUMPDEST PUSH1 0x40 MLOAD DUP1 SWAP2 SUB SWAP1 RETURN JUMPDEST CALLVALUE DUP1 ISZERO PUSH2 0xF8 JUMPI PUSH0 DUP1 REVERT JUMPDEST POP PUSH2 0x113 PUSH1 0x4 DUP1 CALLDATASIZE SUB DUP2 ADD SWAP1 PUSH2 0x10E SWAP2 SWAP1 PUSH2 0x6C0 JUMP JUMPDEST PUSH2 0x4B1 JUMP JUMPDEST PUSH1 0x40 MLOAD PUSH2 0x120 SWAP2 SWAP1 PUSH2 0x6FA JUMP JUMPDEST PUSH1 0x40 MLOAD DUP1 SWAP2 SUB SWAP1 RETURN JUMPDEST PUSH0 DUP1 DUP4 GT DUP1 ISZERO PUSH2 0x13A JUMPI POP PUSH1 0x64 DUP4 GT ISZERO JUMPDEST DUP1 ISZERO PUSH2 0x154 JUMPI POP PUSH1 0x64 DUP4 PUSH1 0x2 SLOAD PUSH2 0x151 SWAP2 SWAP1 PUSH2 0x740 JUMP JUMPDEST GT ISZERO JUMPDEST PUSH2 0x193 JUMPI PUSH1 0x40 MLOAD PUSH32 0x8C379A000000000000000000000000000000000000000000000000000000000 DUP2 MSTORE PUSH1 0x4 ADD PUSH2 0x18A SWAP1 PUSH2 0x7CD JUMP JUMPDEST PUSH1 0x40 MLOAD DUP1 SWAP2 SUB SWAP1 REVERT JUMPDEST DUP2 PUSH1 0x4 PUSH0 PUSH1 0x3 SLOAD DUP2 MSTORE PUSH1 0x20 ADD SWAP1 DUP2 MSTORE PUSH1 0x20 ADD PUSH0 KECCAK256 PUSH0 PUSH2 0x100 EXP DUP2 SLOAD DUP2 PUSH20 0xFFFFFFFFFFFFFFFFFFFFFFFFFFFFFFFFFFFFFFFF MUL NOT AND SWAP1 DUP4 PUSH20 0xFFFFFFFFFFFFFFFFFFFFFFFFFFFFFFFFFFFFFFFF AND MUL OR SWAP1 SSTORE POP DUP3 PUSH1 0x5 PUSH0 DUP5 PUSH20 0xFFFFFFFFFFFFFFFFFFFFFFFFFFFFFFFFFFFFFFFF AND PUSH20 0xFFFFFFFFFFFFFFFFFFFFFFFFFFFFFFFFFFFFFFFF AND DUP2 MSTORE PUSH1 0x20 ADD SWAP1 DUP2 MSTORE PUSH1 0x20 ADD PUSH0 KECCAK256 DUP2 SWAP1 SSTORE POP PUSH1 0x3 PUSH0 DUP2 SLOAD DUP1 SWAP3 SWAP2 SWAP1 PUSH2 0x238 SWAP1 PUSH2 0x7EB JUMP JUMPDEST SWAP2 SWAP1 POP SSTORE POP PUSH2 0x252 DUP4 PUSH1 0x2 SLOAD PUSH2 0x4E1 SWAP1 SWAP2 SWAP1 PUSH4 0xFFFFFFFF AND JUMP JUMPDEST PUSH1 0x2 DUP2 SWAP1 SSTORE POP PUSH1 0x1 SWAP1 POP SWAP3 SWAP2 POP POP JUMP JUMPDEST PUSH0 CALLVALUE GT PUSH2 0x2A4 JUMPI PUSH1 0x40 MLOAD PUSH32 0x8C379A000000000000000000000000000000000000000000000000000000000 DUP2 MSTORE PUSH1 0x4 ADD PUSH2 0x29B SWAP1 PUSH2 0x8A2 JUMP JUMPDEST PUSH1 0x40 MLOAD DUP1 SWAP2 SUB SWAP1 REVERT JUMPDEST PUSH2 0x2B8 CALLVALUE PUSH0 SLOAD PUSH2 0x4E1 SWAP1 SWAP2 SWAP1 PUSH4 0xFFFFFFFF AND JUMP JUMPDEST PUSH0 DUP2 SWAP1 SSTORE POP JUMP JUMPDEST PUSH0 DUP1 PUSH0 SLOAD GT PUSH2 0x303 JUMPI PUSH1 0x40 MLOAD PUSH32 0x8C379A000000000000000000000000000000000000000000000000000000000 DUP2 MSTORE PUSH1 0x4 ADD PUSH2 0x2FA SWAP1 PUSH2 0x930 JUMP JUMPDEST PUSH1 0x40 MLOAD DUP1 SWAP2 SUB SWAP1 REVERT JUMPDEST PUSH1 0x64 PUSH1 0x2 SLOAD EQ PUSH2 0x315 JUMPI PUSH0 SWAP1 POP PUSH2 0x499 JUMP JUMPDEST PUSH0 PUSH1 0x2 DUP2 SWAP1 SSTORE POP PUSH2 0x331 PUSH1 0x64 PUSH0 SLOAD PUSH2 0x50C SWAP1 SWAP2 SWAP1 PUSH4 0xFFFFFFFF AND JUMP JUMPDEST PUSH1 0x1 DUP2 SWAP1 SSTORE POP PUSH0 DUP1 DUP2 SWAP1 SSTORE POP PUSH0 JUMPDEST PUSH1 0x3 SLOAD DUP2 LT ISZERO PUSH2 0x493 JUMPI PUSH0 PUSH1 0x4 PUSH0 DUP4 DUP2 MSTORE PUSH1 0x20 ADD SWAP1 DUP2 MSTORE PUSH1 0x20 ADD PUSH0 KECCAK256 PUSH0 SWAP1 SLOAD SWAP1 PUSH2 0x100 EXP SWAP1 DIV PUSH20 0xFFFFFFFFFFFFFFFFFFFFFFFFFFFFFFFFFFFFFFFF AND SWAP1 POP DUP1 PUSH20 0xFFFFFFFFFFFFFFFFFFFFFFFFFFFFFFFFFFFFFFFF AND PUSH2 0x8FC PUSH2 0x3E9 PUSH1 0x5 PUSH0 DUP6 PUSH20 0xFFFFFFFFFFFFFFFFFFFFFFFFFFFFFFFFFFFFFFFF AND PUSH20 0xFFFFFFFFFFFFFFFFFFFFFFFFFFFFFFFFFFFFFFFF AND DUP2 MSTORE PUSH1 0x20 ADD SWAP1 DUP2 MSTORE PUSH1 0x20 ADD PUSH0 KECCAK256 SLOAD PUSH1 0x1 SLOAD PUSH2 0x526 SWAP1 SWAP2 SWAP1 PUSH4 0xFFFFFFFF AND JUMP JUMPDEST SWAP1 DUP2 ISZERO MUL SWAP1 PUSH1 0x40 MLOAD PUSH0 PUSH1 0x40 MLOAD DUP1 DUP4 SUB DUP2 DUP6 DUP9 DUP9 CALL SWAP4 POP POP POP POP ISZERO DUP1 ISZERO PUSH2 0x411 JUMPI RETURNDATASIZE PUSH0 DUP1 RETURNDATACOPY RETURNDATASIZE PUSH0 REVERT JUMPDEST POP PUSH1 0x4 PUSH0 DUP4 DUP2 MSTORE PUSH1 0x20 ADD SWAP1 DUP2 MSTORE PUSH1 0x20 ADD PUSH0 KECCAK256 PUSH0 PUSH2 0x100 EXP DUP2 SLOAD SWAP1 PUSH20 0xFFFFFFFFFFFFFFFFFFFFFFFFFFFFFFFFFFFFFFFF MUL NOT AND SWAP1 SSTORE PUSH1 0x5 PUSH0 DUP3 PUSH20 0xFFFFFFFFFFFFFFFFFFFFFFFFFFFFFFFFFFFFFFFF AND PUSH20 0xFFFFFFFFFFFFFFFFFFFFFFFFFFFFFFFFFFFFFFFF AND DUP2 MSTORE PUSH1 0x20 ADD SWAP1 DUP2 MSTORE PUSH1 0x20 ADD PUSH0 KECCAK256 PUSH0 SWAP1 SSTORE POP DUP1 DUP1 PUSH1 0x1 ADD SWAP2 POP POP PUSH2 0x33F JUMP JUMPDEST POP PUSH1 0x1 SWAP1 POP JUMPDEST SWAP1 JUMP JUMPDEST PUSH1 0x5 PUSH1 0x20 MSTORE DUP1 PUSH0 MSTORE PUSH1 0x40 PUSH0 KECCAK256 PUSH0 SWAP2 POP SWAP1 POP SLOAD DUP2 JUMP JUMPDEST PUSH1 0x4 PUSH1 0x20 MSTORE DUP1 PUSH0 MSTORE PUSH1 0x40 PUSH0 KECCAK256 PUSH0 SWAP2 POP SLOAD SWAP1 PUSH2 0x100 EXP SWAP1 DIV PUSH20 0xFFFFFFFFFFFFFFFFFFFFFFFFFFFFFFFFFFFFFFFF AND DUP2 JUMP JUMPDEST PUSH0 DUP1 DUP3 DUP5 PUSH2 0x4EF SWAP2 SWAP1 PUSH2 0x740 JUMP JUMPDEST SWAP1 POP DUP4 DUP2 LT ISZERO PUSH2 0x502 JUMPI PUSH2 0x501 PUSH2 0x94E JUMP JUMPDEST JUMPDEST DUP1 SWAP2 POP POP SWAP3 SWAP2 POP POP JUMP JUMPDEST PUSH0 DUP1 DUP3 DUP5 PUSH2 0x51A SWAP2 SWAP1 PUSH2 0x9A8 JUMP JUMPDEST SWAP1 POP DUP1 SWAP2 POP POP SWAP3 SWAP2 POP POP JUMP JUMPDEST PUSH0 DUP1 DUP4 SUB PUSH2 0x536 JUMPI PUSH0 SWAP1 POP PUSH2 0x565 JUMP JUMPDEST PUSH0 DUP3 DUP5 PUSH2 0x543 SWAP2 SWAP1 PUSH2 0x9D8 JUMP JUMPDEST SWAP1 POP DUP3 DUP5 DUP3 PUSH2 0x552 SWAP2 SWAP1 PUSH2 0x9A8 JUMP JUMPDEST EQ PUSH2 0x560 JUMPI PUSH2 0x55F PUSH2 0x94E JUMP JUMPDEST JUMPDEST DUP1 SWAP2 POP POP JUMPDEST SWAP3 SWAP2 POP POP JUMP JUMPDEST PUSH0 DUP1 REVERT JUMPDEST PUSH0 DUP2 SWAP1 POP SWAP2 SWAP1 POP JUMP JUMPDEST PUSH2 0x581 DUP2 PUSH2 0x56F JUMP JUMPDEST DUP2 EQ PUSH2 0x58B JUMPI PUSH0 DUP1 REVERT JUMPDEST POP JUMP JUMPDEST PUSH0 DUP2 CALLDATALOAD SWAP1 POP PUSH2 0x59C DUP2 PUSH2 0x578 JUMP JUMPDEST SWAP3 SWAP2 POP POP JUMP JUMPDEST PUSH0 PUSH20 0xFFFFFFFFFFFFFFFFFFFFFFFFFFFFFFFFFFFFFFFF DUP3 AND SWAP1 POP SWAP2 SWAP1 POP JUMP JUMPDEST PUSH0 PUSH2 0x5CB DUP3 PUSH2 0x5A2 JUMP JUMPDEST SWAP1 POP SWAP2 SWAP1 POP JUMP JUMPDEST PUSH2 0x5DB DUP2 PUSH2 0x5C1 JUMP JUMPDEST DUP2 EQ PUSH2 0x5E5 JUMPI PUSH0 DUP1 REVERT JUMPDEST POP JUMP JUMPDEST PUSH0 DUP2 CALLDATALOAD SWAP1 POP PUSH2 0x5F6 DUP2 PUSH2 0x5D2 JUMP JUMPDEST SWAP3 SWAP2 POP POP JUMP JUMPDEST PUSH0 DUP1 PUSH1 0x40 DUP4 DUP6 SUB SLT ISZERO PUSH2 0x612 JUMPI PUSH2 0x611 PUSH2 0x56B JUMP JUMPDEST JUMPDEST PUSH0 PUSH2 0x61F DUP6 DUP3 DUP7 ADD PUSH2 0x58E JUMP JUMPDEST SWAP3 POP POP PUSH1 0x20 PUSH2 0x630 DUP6 DUP3 DUP7 ADD PUSH2 0x5E8 JUMP JUMPDEST SWAP2 POP POP SWAP3 POP SWAP3 SWAP1 POP JUMP JUMPDEST PUSH0 DUP2 ISZERO ISZERO SWAP1 POP SWAP2 SWAP1 POP JUMP JUMPDEST PUSH2 0x64E DUP2 PUSH2 0x63A JUMP JUMPDEST DUP3 MSTORE POP POP JUMP JUMPDEST PUSH0 PUSH1 0x20 DUP3 ADD SWAP1 POP PUSH2 0x667 PUSH0 DUP4 ADD DUP5 PUSH2 0x645 JUMP JUMPDEST SWAP3 SWAP2 POP POP JUMP JUMPDEST PUSH0 PUSH1 0x20 DUP3 DUP5 SUB SLT ISZERO PUSH2 0x682 JUMPI PUSH2 0x681 PUSH2 0x56B JUMP JUMPDEST JUMPDEST PUSH0 PUSH2 0x68F DUP5 DUP3 DUP6 ADD PUSH2 0x5E8 JUMP JUMPDEST SWAP2 POP POP SWAP3 SWAP2 POP POP JUMP JUMPDEST PUSH2 0x6A1 DUP2 PUSH2 0x56F JUMP JUMPDEST DUP3 MSTORE POP POP JUMP JUMPDEST PUSH0 PUSH1 0x20 DUP3 ADD SWAP1 POP PUSH2 0x6BA PUSH0 DUP4 ADD DUP5 PUSH2 0x698 JUMP JUMPDEST SWAP3 SWAP2 POP POP JUMP JUMPDEST PUSH0 PUSH1 0x20 DUP3 DUP5 SUB SLT ISZERO PUSH2 0x6D5 JUMPI PUSH2 0x6D4 PUSH2 0x56B JUMP JUMPDEST JUMPDEST PUSH0 PUSH2 0x6E2 DUP5 DUP3 DUP6 ADD PUSH2 0x58E JUMP JUMPDEST SWAP2 POP POP SWAP3 SWAP2 POP POP JUMP JUMPDEST PUSH2 0x6F4 DUP2 PUSH2 0x5C1 JUMP JUMPDEST DUP3 MSTORE POP POP JUMP JUMPDEST PUSH0 PUSH1 0x20 DUP3 ADD SWAP1 POP PUSH2 0x70D PUSH0 DUP4 ADD DUP5 PUSH2 0x6EB JUMP JUMPDEST SWAP3 SWAP2 POP POP JUMP JUMPDEST PUSH32 0x4E487B7100000000000000000000000000000000000000000000000000000000 PUSH0 MSTORE PUSH1 0x11 PUSH1 0x4 MSTORE PUSH1 0x24 PUSH0 REVERT JUMPDEST PUSH0 PUSH2 0x74A DUP3 PUSH2 0x56F JUMP JUMPDEST SWAP2 POP PUSH2 0x755 DUP4 PUSH2 0x56F JUMP JUMPDEST SWAP3 POP DUP3 DUP3 ADD SWAP1 POP DUP1 DUP3 GT ISZERO PUSH2 0x76D JUMPI PUSH2 0x76C PUSH2 0x713 JUMP JUMPDEST JUMPDEST SWAP3 SWAP2 POP POP JUMP JUMPDEST PUSH0 DUP3 DUP3 MSTORE PUSH1 0x20 DUP3 ADD SWAP1 POP SWAP3 SWAP2 POP POP JUMP JUMPDEST PUSH32 0x50657263656E746167657320617265206E6F742076616C696400000000000000 PUSH0 DUP3 ADD MSTORE POP JUMP JUMPDEST PUSH0 PUSH2 0x7B7 PUSH1 0x19 DUP4 PUSH2 0x773 JUMP JUMPDEST SWAP2 POP PUSH2 0x7C2 DUP3 PUSH2 0x783 JUMP JUMPDEST PUSH1 0x20 DUP3 ADD SWAP1 POP SWAP2 SWAP1 POP JUMP JUMPDEST PUSH0 PUSH1 0x20 DUP3 ADD SWAP1 POP DUP2 DUP2 SUB PUSH0 DUP4 ADD MSTORE PUSH2 0x7E4 DUP2 PUSH2 0x7AB JUMP JUMPDEST SWAP1 POP SWAP2 SWAP1 POP JUMP JUMPDEST PUSH0 PUSH2 0x7F5 DUP3 PUSH2 0x56F JUMP JUMPDEST SWAP2 POP PUSH32 0xFFFFFFFFFFFFFFFFFFFFFFFFFFFFFFFFFFFFFFFFFFFFFFFFFFFFFFFFFFFFFFFF DUP3 SUB PUSH2 0x827 JUMPI PUSH2 0x826 PUSH2 0x713 JUMP JUMPDEST JUMPDEST PUSH1 0x1 DUP3 ADD SWAP1 POP SWAP2 SWAP1 POP JUMP JUMPDEST PUSH32 0x526F79616C747920616D6F756E74206D75737420626520686967686572207468 PUSH0 DUP3 ADD MSTORE PUSH32 0x616E203000000000000000000000000000000000000000000000000000000000 PUSH1 0x20 DUP3 ADD MSTORE POP JUMP JUMPDEST PUSH0 PUSH2 0x88C PUSH1 0x24 DUP4 PUSH2 0x773 JUMP JUMPDEST SWAP2 POP PUSH2 0x897 DUP3 PUSH2 0x832 JUMP JUMPDEST PUSH1 0x40 DUP3 ADD SWAP1 POP SWAP2 SWAP1 POP JUMP JUMPDEST PUSH0 PUSH1 0x20 DUP3 ADD SWAP1 POP DUP2 DUP2 SUB PUSH0 DUP4 ADD MSTORE PUSH2 0x8B9 DUP2 PUSH2 0x880 JUMP JUMPDEST SWAP1 POP SWAP2 SWAP1 POP JUMP JUMPDEST PUSH32 0x4E6F2066756E64732068617665206265656E2073656E7420746F207468652063 PUSH0 DUP3 ADD MSTORE PUSH32 0x6F6E747261637400000000000000000000000000000000000000000000000000 PUSH1 0x20 DUP3 ADD MSTORE POP JUMP JUMPDEST PUSH0 PUSH2 0x91A PUSH1 0x27 DUP4 PUSH2 0x773 JUMP JUMPDEST SWAP2 POP PUSH2 0x925 DUP3 PUSH2 0x8C0 JUMP JUMPDEST PUSH1 0x40 DUP3 ADD SWAP1 POP SWAP2 SWAP1 POP JUMP JUMPDEST PUSH0 PUSH1 0x20 DUP3 ADD SWAP1 POP DUP2 DUP2 SUB PUSH0 DUP4 ADD MSTORE PUSH2 0x947 DUP2 PUSH2 0x90E JUMP JUMPDEST SWAP1 POP SWAP2 SWAP1 POP JUMP JUMPDEST PUSH32 0x4E487B7100000000000000000000000000000000000000000000000000000000 PUSH0 MSTORE PUSH1 0x1 PUSH1 0x4 MSTORE PUSH1 0x24 PUSH0 REVERT JUMPDEST PUSH32 0x4E487B7100000000000000000000000000000000000000000000000000000000 PUSH0 MSTORE PUSH1 0x12 PUSH1 0x4 MSTORE PUSH1 0x24 PUSH0 REVERT JUMPDEST PUSH0 PUSH2 0x9B2 DUP3 PUSH2 0x56F JUMP JUMPDEST SWAP2 POP PUSH2 0x9BD DUP4 PUSH2 0x56F JUMP JUMPDEST SWAP3 POP DUP3 PUSH2 0x9CD JUMPI PUSH2 0x9CC PUSH2 0x97B JUMP JUMPDEST JUMPDEST DUP3 DUP3 DIV SWAP1 POP SWAP3 SWAP2 POP POP JUMP JUMPDEST PUSH0 PUSH2 0x9E2 DUP3 PUSH2 0x56F JUMP JUMPDEST SWAP2 POP PUSH2 0x9ED DUP4 PUSH2 0x56F JUMP JUMPDEST SWAP3 POP DUP3 DUP3 MUL PUSH2 0x9FB DUP2 PUSH2 0x56F JUMP JUMPDEST SWAP2 POP DUP3 DUP3 DIV DUP5 EQ DUP4 ISZERO OR PUSH2 0xA12 JUMPI PUSH2 0xA11 PUSH2 0x713 JUMP JUMPDEST JUMPDEST POP SWAP3 SWAP2 POP POP JUMP INVALID LOG2 PUSH5 0x6970667358 0x22 SLT KECCAK256 0x25 0xAE 0xE8 0x27 CALLDATASIZE DIV 0xB3 0xDC 0x28 0xE5 0xBB 0xA7 0xBE 0x4D 0xE PUSH7 0x55E89F933A2316 ISZERO PUSH13 0xE41EE2E361FED364736F6C6343 STOP ADDMOD AND STOP CALLER "
				},
				"gasEstimates": {
					"creation": {
						"codeDepositCost": "527800",
						"executionCost": "15575",
						"totalCost": "543375"
					},
					"external": {
						"addRecipient(uint256,address)": "infinite",
						"fundContract()": "infinite",
						"payRecipients()": "infinite",
						"recipients(uint256)": "2893",
						"shares(address)": "2846"
					}
				},
				"methodIdentifiers": {
					"addRecipient(uint256,address)": "8ab03929",
					"fundContract()": "bd097e21",
					"payRecipients()": "c633791f",
					"recipients(uint256)": "d1bc76a1",
					"shares(address)": "ce7c2ac2"
				}
			},
			"storageLayout": {
				"storage": [
					{
						"astId": 227,
						"contract": "PH/contracts/Payout.sol:Payout",
						"label": "amountForCalc1",
						"offset": 0,
						"slot": "0",
						"type": "t_uint256"
					},
					{
						"astId": 229,
						"contract": "PH/contracts/Payout.sol:Payout",
						"label": "amountForCalc2",
						"offset": 0,
						"slot": "1",
						"type": "t_uint256"
					},
					{
						"astId": 232,
						"contract": "PH/contracts/Payout.sol:Payout",
						"label": "_percentageSum",
						"offset": 0,
						"slot": "2",
						"type": "t_uint256"
					},
					{
						"astId": 235,
						"contract": "PH/contracts/Payout.sol:Payout",
						"label": "_totalRecipients",
						"offset": 0,
						"slot": "3",
						"type": "t_uint256"
					},
					{
						"astId": 239,
						"contract": "PH/contracts/Payout.sol:Payout",
						"label": "recipients",
						"offset": 0,
						"slot": "4",
						"type": "t_mapping(t_uint256,t_address)"
					},
					{
						"astId": 243,
						"contract": "PH/contracts/Payout.sol:Payout",
						"label": "shares",
						"offset": 0,
						"slot": "5",
						"type": "t_mapping(t_address,t_uint256)"
					}
				],
				"types": {
					"t_address": {
						"encoding": "inplace",
						"label": "address",
						"numberOfBytes": "20"
					},
					"t_mapping(t_address,t_uint256)": {
						"encoding": "mapping",
						"key": "t_address",
						"label": "mapping(address => uint256)",
						"numberOfBytes": "32",
						"value": "t_uint256"
					},
					"t_mapping(t_uint256,t_address)": {
						"encoding": "mapping",
						"key": "t_uint256",
						"label": "mapping(uint256 => address)",
						"numberOfBytes": "32",
						"value": "t_address"
					},
					"t_uint256": {
						"encoding": "inplace",
						"label": "uint256",
						"numberOfBytes": "32"
					}
				}
			},
			"userdoc": {
				"kind": "user",
				"methods": {},
				"version": 1
			}
		}
	}
}